{
  "contractName": "AuraSkyNFT",
  "abi": [
    {
      "inputs": [],
      "stateMutability": "nonpayable",
      "type": "constructor"
    },
    {
      "inputs": [
        {
          "internalType": "address",
          "name": "sender",
          "type": "address"
        },
        {
          "internalType": "uint256",
          "name": "tokenId",
          "type": "uint256"
        },
        {
          "internalType": "address",
          "name": "owner",
          "type": "address"
        }
      ],
      "name": "ERC721IncorrectOwner",
      "type": "error"
    },
    {
      "inputs": [
        {
          "internalType": "address",
          "name": "operator",
          "type": "address"
        },
        {
          "internalType": "uint256",
          "name": "tokenId",
          "type": "uint256"
        }
      ],
      "name": "ERC721InsufficientApproval",
      "type": "error"
    },
    {
      "inputs": [
        {
          "internalType": "address",
          "name": "approver",
          "type": "address"
        }
      ],
      "name": "ERC721InvalidApprover",
      "type": "error"
    },
    {
      "inputs": [
        {
          "internalType": "address",
          "name": "operator",
          "type": "address"
        }
      ],
      "name": "ERC721InvalidOperator",
      "type": "error"
    },
    {
      "inputs": [
        {
          "internalType": "address",
          "name": "owner",
          "type": "address"
        }
      ],
      "name": "ERC721InvalidOwner",
      "type": "error"
    },
    {
      "inputs": [
        {
          "internalType": "address",
          "name": "receiver",
          "type": "address"
        }
      ],
      "name": "ERC721InvalidReceiver",
      "type": "error"
    },
    {
      "inputs": [
        {
          "internalType": "address",
          "name": "sender",
          "type": "address"
        }
      ],
      "name": "ERC721InvalidSender",
      "type": "error"
    },
    {
      "inputs": [
        {
          "internalType": "uint256",
          "name": "tokenId",
          "type": "uint256"
        }
      ],
      "name": "ERC721NonexistentToken",
      "type": "error"
    },
    {
      "inputs": [
        {
          "internalType": "address",
          "name": "owner",
          "type": "address"
        }
      ],
      "name": "OwnableInvalidOwner",
      "type": "error"
    },
    {
      "inputs": [
        {
          "internalType": "address",
          "name": "account",
          "type": "address"
        }
      ],
      "name": "OwnableUnauthorizedAccount",
      "type": "error"
    },
    {
      "anonymous": false,
      "inputs": [
        {
          "indexed": true,
          "internalType": "address",
          "name": "owner",
          "type": "address"
        },
        {
          "indexed": true,
          "internalType": "address",
          "name": "approved",
          "type": "address"
        },
        {
          "indexed": true,
          "internalType": "uint256",
          "name": "tokenId",
          "type": "uint256"
        }
      ],
      "name": "Approval",
      "type": "event"
    },
    {
      "anonymous": false,
      "inputs": [
        {
          "indexed": true,
          "internalType": "address",
          "name": "owner",
          "type": "address"
        },
        {
          "indexed": true,
          "internalType": "address",
          "name": "operator",
          "type": "address"
        },
        {
          "indexed": false,
          "internalType": "bool",
          "name": "approved",
          "type": "bool"
        }
      ],
      "name": "ApprovalForAll",
      "type": "event"
    },
    {
      "anonymous": false,
      "inputs": [
        {
          "indexed": true,
          "internalType": "address",
          "name": "previousOwner",
          "type": "address"
        },
        {
          "indexed": true,
          "internalType": "address",
          "name": "newOwner",
          "type": "address"
        }
      ],
      "name": "OwnershipTransferred",
      "type": "event"
    },
    {
      "anonymous": false,
      "inputs": [
        {
          "indexed": true,
          "internalType": "address",
          "name": "from",
          "type": "address"
        },
        {
          "indexed": true,
          "internalType": "address",
          "name": "to",
          "type": "address"
        },
        {
          "indexed": true,
          "internalType": "uint256",
          "name": "tokenId",
          "type": "uint256"
        }
      ],
      "name": "Transfer",
      "type": "event"
    },
    {
      "inputs": [
        {
          "internalType": "address",
          "name": "to",
          "type": "address"
        },
        {
          "internalType": "uint256",
          "name": "tokenId",
          "type": "uint256"
        }
      ],
      "name": "approve",
      "outputs": [],
      "stateMutability": "nonpayable",
      "type": "function"
    },
    {
      "inputs": [
        {
          "internalType": "address",
          "name": "owner",
          "type": "address"
        }
      ],
      "name": "balanceOf",
      "outputs": [
        {
          "internalType": "uint256",
          "name": "",
          "type": "uint256"
        }
      ],
      "stateMutability": "view",
      "type": "function"
    },
    {
      "inputs": [
        {
          "internalType": "uint256",
          "name": "tokenId",
          "type": "uint256"
        }
      ],
      "name": "getApproved",
      "outputs": [
        {
          "internalType": "address",
          "name": "",
          "type": "address"
        }
      ],
      "stateMutability": "view",
      "type": "function"
    },
    {
      "inputs": [],
      "name": "host",
      "outputs": [
        {
          "internalType": "address",
          "name": "",
          "type": "address"
        }
      ],
      "stateMutability": "view",
      "type": "function"
    },
    {
      "inputs": [
        {
          "internalType": "address",
          "name": "owner",
          "type": "address"
        },
        {
          "internalType": "address",
          "name": "operator",
          "type": "address"
        }
      ],
      "name": "isApprovedForAll",
      "outputs": [
        {
          "internalType": "bool",
          "name": "",
          "type": "bool"
        }
      ],
      "stateMutability": "view",
      "type": "function"
    },
    {
      "inputs": [],
      "name": "name",
      "outputs": [
        {
          "internalType": "string",
          "name": "",
          "type": "string"
        }
      ],
      "stateMutability": "view",
      "type": "function"
    },
    {
      "inputs": [],
      "name": "owner",
      "outputs": [
        {
          "internalType": "address",
          "name": "",
          "type": "address"
        }
      ],
      "stateMutability": "view",
      "type": "function"
    },
    {
      "inputs": [
        {
          "internalType": "uint256",
          "name": "tokenId",
          "type": "uint256"
        }
      ],
      "name": "ownerOf",
      "outputs": [
        {
          "internalType": "address",
          "name": "",
          "type": "address"
        }
      ],
      "stateMutability": "view",
      "type": "function"
    },
    {
      "inputs": [],
      "name": "renounceOwnership",
      "outputs": [],
      "stateMutability": "nonpayable",
      "type": "function"
    },
    {
      "inputs": [
        {
          "internalType": "address",
          "name": "from",
          "type": "address"
        },
        {
          "internalType": "address",
          "name": "to",
          "type": "address"
        },
        {
          "internalType": "uint256",
          "name": "tokenId",
          "type": "uint256"
        }
      ],
      "name": "safeTransferFrom",
      "outputs": [],
      "stateMutability": "nonpayable",
      "type": "function"
    },
    {
      "inputs": [
        {
          "internalType": "address",
          "name": "from",
          "type": "address"
        },
        {
          "internalType": "address",
          "name": "to",
          "type": "address"
        },
        {
          "internalType": "uint256",
          "name": "tokenId",
          "type": "uint256"
        },
        {
          "internalType": "bytes",
          "name": "data",
          "type": "bytes"
        }
      ],
      "name": "safeTransferFrom",
      "outputs": [],
      "stateMutability": "nonpayable",
      "type": "function"
    },
    {
      "inputs": [
        {
          "internalType": "address",
          "name": "operator",
          "type": "address"
        },
        {
          "internalType": "bool",
          "name": "approved",
          "type": "bool"
        }
      ],
      "name": "setApprovalForAll",
      "outputs": [],
      "stateMutability": "nonpayable",
      "type": "function"
    },
    {
      "inputs": [
        {
          "internalType": "bytes4",
          "name": "interfaceId",
          "type": "bytes4"
        }
      ],
      "name": "supportsInterface",
      "outputs": [
        {
          "internalType": "bool",
          "name": "",
          "type": "bool"
        }
      ],
      "stateMutability": "view",
      "type": "function"
    },
    {
      "inputs": [],
      "name": "symbol",
      "outputs": [
        {
          "internalType": "string",
          "name": "",
          "type": "string"
        }
      ],
      "stateMutability": "view",
      "type": "function"
    },
    {
      "inputs": [
        {
          "internalType": "uint256",
          "name": "tokenId",
          "type": "uint256"
        }
      ],
      "name": "tokenURI",
      "outputs": [
        {
          "internalType": "string",
          "name": "",
          "type": "string"
        }
      ],
      "stateMutability": "view",
      "type": "function"
    },
    {
      "inputs": [
        {
          "internalType": "address",
          "name": "from",
          "type": "address"
        },
        {
          "internalType": "address",
          "name": "to",
          "type": "address"
        },
        {
          "internalType": "uint256",
          "name": "tokenId",
          "type": "uint256"
        }
      ],
      "name": "transferFrom",
      "outputs": [],
      "stateMutability": "nonpayable",
      "type": "function"
    },
    {
      "inputs": [
        {
          "internalType": "address",
          "name": "newOwner",
          "type": "address"
        }
      ],
      "name": "transferOwnership",
      "outputs": [],
      "stateMutability": "nonpayable",
      "type": "function"
    },
    {
      "inputs": [
        {
          "internalType": "uint256",
          "name": "nftID",
          "type": "uint256"
        },
        {
          "internalType": "uint256",
          "name": "priceInWei",
          "type": "uint256"
        }
      ],
      "name": "buyNFT",
      "outputs": [],
      "stateMutability": "payable",
      "type": "function"
    },
    {
      "inputs": [
        {
          "internalType": "uint256",
          "name": "nftID",
          "type": "uint256"
        }
      ],
      "name": "sellNFT",
      "outputs": [],
      "stateMutability": "nonpayable",
      "type": "function"
    },
    {
      "inputs": [
        {
          "internalType": "address",
          "name": "recipient",
          "type": "address"
        },
        {
          "internalType": "uint256",
          "name": "amountInWei",
          "type": "uint256"
        },
        {
          "internalType": "string",
          "name": "_key",
          "type": "string"
        }
      ],
      "name": "sendEther",
      "outputs": [],
      "stateMutability": "nonpayable",
      "type": "function"
    }
  ],
  "bytecode": "0x60806040526040518060400160405280600481526020017f6d696e6800000000000000000000000000000000000000000000000000000000815250600890816200004a9190620004ef565b5034801562000057575f80fd5b506040518060400160405280600b81526020017f41757261536b79204e46540000000000000000000000000000000000000000008152506040518060400160405280600a81526020017f41757261536b794e4654000000000000000000000000000000000000000000008152507397400b8c26854f59a419613e94900cda50f3a38e5f73ffffffffffffffffffffffffffffffffffffffff168173ffffffffffffffffffffffffffffffffffffffff16036200014c575f6040517f1e4fbdf700000000000000000000000000000000000000000000000000000000815260040162000143919062000616565b60405180910390fd5b6200015d81620001ca60201b60201c565b5081600190816200016f9190620004ef565b508060029081620001819190620004ef565b5050503360075f6101000a81548173ffffffffffffffffffffffffffffffffffffffff021916908373ffffffffffffffffffffffffffffffffffffffff16021790555062000631565b5f805f9054906101000a900473ffffffffffffffffffffffffffffffffffffffff169050815f806101000a81548173ffffffffffffffffffffffffffffffffffffffff021916908373ffffffffffffffffffffffffffffffffffffffff1602179055508173ffffffffffffffffffffffffffffffffffffffff168173ffffffffffffffffffffffffffffffffffffffff167f8be0079c531659141344cd1fd0a4f28419497f9722a3daafe3b4186f6b6457e060405160405180910390a35050565b5f81519050919050565b7f4e487b71000000000000000000000000000000000000000000000000000000005f52604160045260245ffd5b7f4e487b71000000000000000000000000000000000000000000000000000000005f52602260045260245ffd5b5f60028204905060018216806200030757607f821691505b6020821081036200031d576200031c620002c2565b5b50919050565b5f819050815f5260205f209050919050565b5f6020601f8301049050919050565b5f82821b905092915050565b5f60088302620003817fffffffffffffffffffffffffffffffffffffffffffffffffffffffffffffffff8262000344565b6200038d868362000344565b95508019841693508086168417925050509392505050565b5f819050919050565b5f819050919050565b5f620003d7620003d1620003cb84620003a5565b620003ae565b620003a5565b9050919050565b5f819050919050565b620003f283620003b7565b6200040a6200040182620003de565b84845462000350565b825550505050565b5f90565b6200042062000412565b6200042d818484620003e7565b505050565b5b818110156200045457620004485f8262000416565b60018101905062000433565b5050565b601f821115620004a3576200046d8162000323565b620004788462000335565b8101602085101562000488578190505b620004a0620004978562000335565b83018262000432565b50505b505050565b5f82821c905092915050565b5f620004c55f1984600802620004a8565b1980831691505092915050565b5f620004df8383620004b4565b9150826002028217905092915050565b620004fa826200028b565b67ffffffffffffffff81111562000516576200051562000295565b5b620005228254620002ef565b6200052f82828562000458565b5f60209050601f83116001811462000565575f841562000550578287015190505b6200055c8582620004d2565b865550620005cb565b601f198416620005758662000323565b5f5b828110156200059e5784890151825560018201915060208501945060208101905062000577565b86831015620005be5784890151620005ba601f891682620004b4565b8355505b6001600288020188555050505b505050505050565b5f73ffffffffffffffffffffffffffffffffffffffff82169050919050565b5f620005fe82620005d3565b9050919050565b6200061081620005f2565b82525050565b5f6020820190506200062b5f83018462000605565b92915050565b6126b3806200063f5f395ff3fe60806040526004361061011e575f3560e01c8063715018a61161009f578063c87b56dd11610063578063c87b56dd146103b2578063e985e9c5146103ee578063ee9cdfb31461042a578063f2fde38b14610452578063f437bc591461047a5761011e565b8063715018a6146102f85780638da5cb5b1461030e57806395d89b4114610338578063a22cb46514610362578063b88d4fde1461038a5761011e565b806323b872dd116100e657806323b872dd1461020857806342842e0e146102305780636352211e14610258578063694c2d9d1461029457806370a08231146102bc5761011e565b806301ffc9a71461012257806306fdde031461015e578063081812fc14610188578063095ea7b3146101c45780631d85bf03146101ec575b5f80fd5b34801561012d575f80fd5b5061014860048036038101906101439190611b98565b6104a4565b6040516101559190611bdd565b60405180910390f35b348015610169575f80fd5b50610172610585565b60405161017f9190611c80565b60405180910390f35b348015610193575f80fd5b506101ae60048036038101906101a99190611cd3565b610615565b6040516101bb9190611d3d565b60405180910390f35b3480156101cf575f80fd5b506101ea60048036038101906101e59190611d80565b610630565b005b61020660048036038101906102019190611dbe565b610646565b005b348015610213575f80fd5b5061022e60048036038101906102299190611dfc565b6106a7565b005b34801561023b575f80fd5b5061025660048036038101906102519190611dfc565b6107a6565b005b348015610263575f80fd5b5061027e60048036038101906102799190611cd3565b6107c5565b60405161028b9190611d3d565b60405180910390f35b34801561029f575f80fd5b506102ba60048036038101906102b59190611f78565b6107d6565b005b3480156102c7575f80fd5b506102e260048036038101906102dd9190611fe4565b61092d565b6040516102ef919061201e565b60405180910390f35b348015610303575f80fd5b5061030c6109e3565b005b348015610319575f80fd5b506103226109f6565b60405161032f9190611d3d565b60405180910390f35b348015610343575f80fd5b5061034c610a1d565b6040516103599190611c80565b60405180910390f35b34801561036d575f80fd5b5061038860048036038101906103839190612061565b610aad565b005b348015610395575f80fd5b506103b060048036038101906103ab919061213d565b610ac3565b005b3480156103bd575f80fd5b506103d860048036038101906103d39190611cd3565b610ae0565b6040516103e59190611c80565b60405180910390f35b3480156103f9575f80fd5b50610414600480360381019061040f91906121bd565b610b46565b6040516104219190611bdd565b60405180910390f35b348015610435575f80fd5b50610450600480360381019061044b9190611cd3565b610bd4565b005b34801561045d575f80fd5b5061047860048036038101906104739190611fe4565b610c03565b005b348015610485575f80fd5b5061048e610c87565b60405161049b9190611d3d565b60405180910390f35b5f7f80ac58cd000000000000000000000000000000000000000000000000000000007bffffffffffffffffffffffffffffffffffffffffffffffffffffffff1916827bffffffffffffffffffffffffffffffffffffffffffffffffffffffff1916148061056e57507f5b5e139f000000000000000000000000000000000000000000000000000000007bffffffffffffffffffffffffffffffffffffffffffffffffffffffff1916827bffffffffffffffffffffffffffffffffffffffffffffffffffffffff1916145b8061057e575061057d82610cac565b5b9050919050565b60606001805461059490612228565b80601f01602080910402602001604051908101604052809291908181526020018280546105c090612228565b801561060b5780601f106105e25761010080835404028352916020019161060b565b820191905f5260205f20905b8154815290600101906020018083116105ee57829003601f168201915b5050505050905090565b5f61061f82610d15565b5061062982610d9b565b9050919050565b610642828261063d610dd4565b610ddb565b5050565b5f6001826106549190612285565b9050803414610698576040517f08c379a000000000000000000000000000000000000000000000000000000000815260040161068f90612310565b60405180910390fd5b6106a23384610ded565b505050565b5f73ffffffffffffffffffffffffffffffffffffffff168273ffffffffffffffffffffffffffffffffffffffff1603610717575f6040517f64a0ae9200000000000000000000000000000000000000000000000000000000815260040161070e9190611d3d565b60405180910390fd5b5f61072a8383610725610dd4565b610e0a565b90508373ffffffffffffffffffffffffffffffffffffffff168173ffffffffffffffffffffffffffffffffffffffff16146107a0578382826040517f64283d7b0000000000000000000000000000000000000000000000000000000081526004016107979392919061232e565b60405180910390fd5b50505050565b6107c083838360405180602001604052805f815250610ac3565b505050565b5f6107cf82610d15565b9050919050565b60086040516020016107e891906123ff565b604051602081830303815290604052805190602001208160405160200161080f9190612445565b6040516020818303038152906040528051906020012014610865576040517f08c379a000000000000000000000000000000000000000000000000000000000815260040161085c906124a5565b60405180910390fd5b3373ffffffffffffffffffffffffffffffffffffffff168373ffffffffffffffffffffffffffffffffffffffff16146108d3576040517f08c379a00000000000000000000000000000000000000000000000000000000081526004016108ca9061250d565b60405180910390fd5b5f6001836108e19190612285565b90508373ffffffffffffffffffffffffffffffffffffffff166108fc8290811502906040515f60405180830381858888f19350505050158015610926573d5f803e3d5ffd5b5050505050565b5f8073ffffffffffffffffffffffffffffffffffffffff168273ffffffffffffffffffffffffffffffffffffffff160361099e575f6040517f89c62b640000000000000000000000000000000000000000000000000000000081526004016109959190611d3d565b60405180910390fd5b60045f8373ffffffffffffffffffffffffffffffffffffffff1673ffffffffffffffffffffffffffffffffffffffff1681526020019081526020015f20549050919050565b6109eb611015565b6109f45f61109c565b565b5f805f9054906101000a900473ffffffffffffffffffffffffffffffffffffffff16905090565b606060028054610a2c90612228565b80601f0160208091040260200160405190810160405280929190818152602001828054610a5890612228565b8015610aa35780601f10610a7a57610100808354040283529160200191610aa3565b820191905f5260205f20905b815481529060010190602001808311610a8657829003601f168201915b5050505050905090565b610abf610ab8610dd4565b838361115d565b5050565b610ace8484846106a7565b610ada848484846112c6565b50505050565b6060610aeb82610d15565b505f610af5611478565b90505f815111610b135760405180602001604052805f815250610b3e565b80610b1d8461148e565b604051602001610b2e92919061252b565b6040516020818303038152906040525b915050919050565b5f60065f8473ffffffffffffffffffffffffffffffffffffffff1673ffffffffffffffffffffffffffffffffffffffff1681526020019081526020015f205f8373ffffffffffffffffffffffffffffffffffffffff1673ffffffffffffffffffffffffffffffffffffffff1681526020019081526020015f205f9054906101000a900460ff16905092915050565b610c003360075f9054906101000a900473ffffffffffffffffffffffffffffffffffffffff16836106a7565b50565b610c0b611015565b5f73ffffffffffffffffffffffffffffffffffffffff168173ffffffffffffffffffffffffffffffffffffffff1603610c7b575f6040517f1e4fbdf7000000000000000000000000000000000000000000000000000000008152600401610c729190611d3d565b60405180910390fd5b610c848161109c565b50565b60075f9054906101000a900473ffffffffffffffffffffffffffffffffffffffff1681565b5f7f01ffc9a7000000000000000000000000000000000000000000000000000000007bffffffffffffffffffffffffffffffffffffffffffffffffffffffff1916827bffffffffffffffffffffffffffffffffffffffffffffffffffffffff1916149050919050565b5f80610d2083611558565b90505f73ffffffffffffffffffffffffffffffffffffffff168173ffffffffffffffffffffffffffffffffffffffff1603610d9257826040517f7e273289000000000000000000000000000000000000000000000000000000008152600401610d89919061201e565b60405180910390fd5b80915050919050565b5f60055f8381526020019081526020015f205f9054906101000a900473ffffffffffffffffffffffffffffffffffffffff169050919050565b5f33905090565b610de88383836001611591565b505050565b610e06828260405180602001604052805f815250611750565b5050565b5f80610e1584611558565b90505f73ffffffffffffffffffffffffffffffffffffffff168373ffffffffffffffffffffffffffffffffffffffff1614610e5657610e5581848661176b565b5b5f73ffffffffffffffffffffffffffffffffffffffff168173ffffffffffffffffffffffffffffffffffffffff1614610ee157610e955f855f80611591565b600160045f8373ffffffffffffffffffffffffffffffffffffffff1673ffffffffffffffffffffffffffffffffffffffff1681526020019081526020015f205f82825403925050819055505b5f73ffffffffffffffffffffffffffffffffffffffff168573ffffffffffffffffffffffffffffffffffffffff1614610f6057600160045f8773ffffffffffffffffffffffffffffffffffffffff1673ffffffffffffffffffffffffffffffffffffffff1681526020019081526020015f205f82825401925050819055505b8460035f8681526020019081526020015f205f6101000a81548173ffffffffffffffffffffffffffffffffffffffff021916908373ffffffffffffffffffffffffffffffffffffffff160217905550838573ffffffffffffffffffffffffffffffffffffffff168273ffffffffffffffffffffffffffffffffffffffff167fddf252ad1be2c89b69c2b068fc378daa952ba7f163c4a11628f55a4df523b3ef60405160405180910390a4809150509392505050565b61101d610dd4565b73ffffffffffffffffffffffffffffffffffffffff1661103b6109f6565b73ffffffffffffffffffffffffffffffffffffffff161461109a5761105e610dd4565b6040517f118cdaa70000000000000000000000000000000000000000000000000000000081526004016110919190611d3d565b60405180910390fd5b565b5f805f9054906101000a900473ffffffffffffffffffffffffffffffffffffffff169050815f806101000a81548173ffffffffffffffffffffffffffffffffffffffff021916908373ffffffffffffffffffffffffffffffffffffffff1602179055508173ffffffffffffffffffffffffffffffffffffffff168173ffffffffffffffffffffffffffffffffffffffff167f8be0079c531659141344cd1fd0a4f28419497f9722a3daafe3b4186f6b6457e060405160405180910390a35050565b5f73ffffffffffffffffffffffffffffffffffffffff168273ffffffffffffffffffffffffffffffffffffffff16036111cd57816040517f5b08ba180000000000000000000000000000000000000000000000000000000081526004016111c49190611d3d565b60405180910390fd5b8060065f8573ffffffffffffffffffffffffffffffffffffffff1673ffffffffffffffffffffffffffffffffffffffff1681526020019081526020015f205f8473ffffffffffffffffffffffffffffffffffffffff1673ffffffffffffffffffffffffffffffffffffffff1681526020019081526020015f205f6101000a81548160ff0219169083151502179055508173ffffffffffffffffffffffffffffffffffffffff168373ffffffffffffffffffffffffffffffffffffffff167f17307eab39ab6107e8899845ad3d59bd9653f200f220920489ca2b5937696c31836040516112b99190611bdd565b60405180910390a3505050565b5f8373ffffffffffffffffffffffffffffffffffffffff163b1115611472578273ffffffffffffffffffffffffffffffffffffffff1663150b7a02611309610dd4565b8685856040518563ffffffff1660e01b815260040161132b94939291906125a0565b6020604051808303815f875af192505050801561136657506040513d601f19601f8201168201806040525081019061136391906125fe565b60015b6113e7573d805f8114611394576040519150601f19603f3d011682016040523d82523d5f602084013e611399565b606091505b505f8151036113df57836040517f64a0ae920000000000000000000000000000000000000000000000000000000081526004016113d69190611d3d565b60405180910390fd5b805181602001fd5b63150b7a0260e01b7bffffffffffffffffffffffffffffffffffffffffffffffffffffffff1916817bffffffffffffffffffffffffffffffffffffffffffffffffffffffff19161461147057836040517f64a0ae920000000000000000000000000000000000000000000000000000000081526004016114679190611d3d565b60405180910390fd5b505b50505050565b606060405180602001604052805f815250905090565b60605f600161149c8461182e565b0190505f8167ffffffffffffffff8111156114ba576114b9611e54565b5b6040519080825280601f01601f1916602001820160405280156114ec5781602001600182028036833780820191505090505b5090505f82602001820190505b60011561154d578080600190039150507f3031323334353637383961626364656600000000000000000000000000000000600a86061a8153600a858161154257611541612629565b5b0494505f85036114f9575b819350505050919050565b5f60035f8381526020019081526020015f205f9054906101000a900473ffffffffffffffffffffffffffffffffffffffff169050919050565b80806115c957505f73ffffffffffffffffffffffffffffffffffffffff168273ffffffffffffffffffffffffffffffffffffffff1614155b156116fb575f6115d884610d15565b90505f73ffffffffffffffffffffffffffffffffffffffff168373ffffffffffffffffffffffffffffffffffffffff161415801561164257508273ffffffffffffffffffffffffffffffffffffffff168173ffffffffffffffffffffffffffffffffffffffff1614155b801561165557506116538184610b46565b155b1561169757826040517fa9fbf51f00000000000000000000000000000000000000000000000000000000815260040161168e9190611d3d565b60405180910390fd5b81156116f957838573ffffffffffffffffffffffffffffffffffffffff168273ffffffffffffffffffffffffffffffffffffffff167f8c5be1e5ebec7d5bd14f71427d1e84f3dd0314c0f7b2291e5b200ac8c7c3b92560405160405180910390a45b505b8360055f8581526020019081526020015f205f6101000a81548173ffffffffffffffffffffffffffffffffffffffff021916908373ffffffffffffffffffffffffffffffffffffffff16021790555050505050565b61175a838361197f565b6117665f8484846112c6565b505050565b611776838383611a72565b611829575f73ffffffffffffffffffffffffffffffffffffffff168373ffffffffffffffffffffffffffffffffffffffff16036117ea57806040517f7e2732890000000000000000000000000000000000000000000000000000000081526004016117e1919061201e565b60405180910390fd5b81816040517f177e802f000000000000000000000000000000000000000000000000000000008152600401611820929190612656565b60405180910390fd5b505050565b5f805f90507a184f03e93ff9f4daa797ed6e38ed64bf6a1f010000000000000000831061188a577a184f03e93ff9f4daa797ed6e38ed64bf6a1f01000000000000000083816118805761187f612629565b5b0492506040810190505b6d04ee2d6d415b85acef810000000083106118c7576d04ee2d6d415b85acef810000000083816118bd576118bc612629565b5b0492506020810190505b662386f26fc1000083106118f657662386f26fc1000083816118ec576118eb612629565b5b0492506010810190505b6305f5e100831061191f576305f5e100838161191557611914612629565b5b0492506008810190505b612710831061194457612710838161193a57611939612629565b5b0492506004810190505b60648310611967576064838161195d5761195c612629565b5b0492506002810190505b600a8310611976576001810190505b80915050919050565b5f73ffffffffffffffffffffffffffffffffffffffff168273ffffffffffffffffffffffffffffffffffffffff16036119ef575f6040517f64a0ae920000000000000000000000000000000000000000000000000000000081526004016119e69190611d3d565b60405180910390fd5b5f6119fb83835f610e0a565b90505f73ffffffffffffffffffffffffffffffffffffffff168173ffffffffffffffffffffffffffffffffffffffff1614611a6d575f6040517f73c6ac6e000000000000000000000000000000000000000000000000000000008152600401611a649190611d3d565b60405180910390fd5b505050565b5f8073ffffffffffffffffffffffffffffffffffffffff168373ffffffffffffffffffffffffffffffffffffffff1614158015611b2957508273ffffffffffffffffffffffffffffffffffffffff168473ffffffffffffffffffffffffffffffffffffffff161480611aea5750611ae98484610b46565b5b80611b2857508273ffffffffffffffffffffffffffffffffffffffff16611b1083610d9b565b73ffffffffffffffffffffffffffffffffffffffff16145b5b90509392505050565b5f604051905090565b5f80fd5b5f80fd5b5f7fffffffff0000000000000000000000000000000000000000000000000000000082169050919050565b611b7781611b43565b8114611b81575f80fd5b50565b5f81359050611b9281611b6e565b92915050565b5f60208284031215611bad57611bac611b3b565b5b5f611bba84828501611b84565b91505092915050565b5f8115159050919050565b611bd781611bc3565b82525050565b5f602082019050611bf05f830184611bce565b92915050565b5f81519050919050565b5f82825260208201905092915050565b5f5b83811015611c2d578082015181840152602081019050611c12565b5f8484015250505050565b5f601f19601f8301169050919050565b5f611c5282611bf6565b611c5c8185611c00565b9350611c6c818560208601611c10565b611c7581611c38565b840191505092915050565b5f6020820190508181035f830152611c988184611c48565b905092915050565b5f819050919050565b611cb281611ca0565b8114611cbc575f80fd5b50565b5f81359050611ccd81611ca9565b92915050565b5f60208284031215611ce857611ce7611b3b565b5b5f611cf584828501611cbf565b91505092915050565b5f73ffffffffffffffffffffffffffffffffffffffff82169050919050565b5f611d2782611cfe565b9050919050565b611d3781611d1d565b82525050565b5f602082019050611d505f830184611d2e565b92915050565b611d5f81611d1d565b8114611d69575f80fd5b50565b5f81359050611d7a81611d56565b92915050565b5f8060408385031215611d9657611d95611b3b565b5b5f611da385828601611d6c565b9250506020611db485828601611cbf565b9150509250929050565b5f8060408385031215611dd457611dd3611b3b565b5b5f611de185828601611cbf565b9250506020611df285828601611cbf565b9150509250929050565b5f805f60608486031215611e1357611e12611b3b565b5b5f611e2086828701611d6c565b9350506020611e3186828701611d6c565b9250506040611e4286828701611cbf565b9150509250925092565b5f80fd5b5f80fd5b7f4e487b71000000000000000000000000000000000000000000000000000000005f52604160045260245ffd5b611e8a82611c38565b810181811067ffffffffffffffff82111715611ea957611ea8611e54565b5b80604052505050565b5f611ebb611b32565b9050611ec78282611e81565b919050565b5f67ffffffffffffffff821115611ee657611ee5611e54565b5b611eef82611c38565b9050602081019050919050565b828183375f83830152505050565b5f611f1c611f1784611ecc565b611eb2565b905082815260208101848484011115611f3857611f37611e50565b5b611f43848285611efc565b509392505050565b5f82601f830112611f5f57611f5e611e4c565b5b8135611f6f848260208601611f0a565b91505092915050565b5f805f60608486031215611f8f57611f8e611b3b565b5b5f611f9c86828701611d6c565b9350506020611fad86828701611cbf565b925050604084013567ffffffffffffffff811115611fce57611fcd611b3f565b5b611fda86828701611f4b565b9150509250925092565b5f60208284031215611ff957611ff8611b3b565b5b5f61200684828501611d6c565b91505092915050565b61201881611ca0565b82525050565b5f6020820190506120315f83018461200f565b92915050565b61204081611bc3565b811461204a575f80fd5b50565b5f8135905061205b81612037565b92915050565b5f806040838503121561207757612076611b3b565b5b5f61208485828601611d6c565b92505060206120958582860161204d565b9150509250929050565b5f67ffffffffffffffff8211156120b9576120b8611e54565b5b6120c282611c38565b9050602081019050919050565b5f6120e16120dc8461209f565b611eb2565b9050828152602081018484840111156120fd576120fc611e50565b5b612108848285611efc565b509392505050565b5f82601f83011261212457612123611e4c565b5b81356121348482602086016120cf565b91505092915050565b5f805f806080858703121561215557612154611b3b565b5b5f61216287828801611d6c565b945050602061217387828801611d6c565b935050604061218487828801611cbf565b925050606085013567ffffffffffffffff8111156121a5576121a4611b3f565b5b6121b187828801612110565b91505092959194509250565b5f80604083850312156121d3576121d2611b3b565b5b5f6121e085828601611d6c565b92505060206121f185828601611d6c565b9150509250929050565b7f4e487b71000000000000000000000000000000000000000000000000000000005f52602260045260245ffd5b5f600282049050600182168061223f57607f821691505b602082108103612252576122516121fb565b5b50919050565b7f4e487b71000000000000000000000000000000000000000000000000000000005f52601160045260245ffd5b5f61228f82611ca0565b915061229a83611ca0565b92508282026122a881611ca0565b915082820484148315176122bf576122be612258565b5b5092915050565b7f446f6e7420656e6f7567682076616c75650000000000000000000000000000005f82015250565b5f6122fa601183611c00565b9150612305826122c6565b602082019050919050565b5f6020820190508181035f830152612327816122ee565b9050919050565b5f6060820190506123415f830186611d2e565b61234e602083018561200f565b61235b6040830184611d2e565b949350505050565b5f81905092915050565b5f819050815f5260205f209050919050565b5f815461238b81612228565b6123958186612363565b9450600182165f81146123af57600181146123c4576123f6565b60ff19831686528115158202860193506123f6565b6123cd8561236d565b5f5b838110156123ee578154818901526001820191506020810190506123cf565b838801955050505b50505092915050565b5f61240a828461237f565b915081905092915050565b5f61241f82611bf6565b6124298185612363565b9350612439818560208601611c10565b80840191505092915050565b5f6124508284612415565b915081905092915050565b7f6b686f6e672070686169206b65790000000000000000000000000000000000005f82015250565b5f61248f600e83611c00565b915061249a8261245b565b602082019050919050565b5f6020820190508181035f8301526124bc81612483565b9050919050565b7f53616920636d6e206e67756f6920676f6920726f6920656d00000000000000005f82015250565b5f6124f7601883611c00565b9150612502826124c3565b602082019050919050565b5f6020820190508181035f830152612524816124eb565b9050919050565b5f6125368285612415565b91506125428284612415565b91508190509392505050565b5f81519050919050565b5f82825260208201905092915050565b5f6125728261254e565b61257c8185612558565b935061258c818560208601611c10565b61259581611c38565b840191505092915050565b5f6080820190506125b35f830187611d2e565b6125c06020830186611d2e565b6125cd604083018561200f565b81810360608301526125df8184612568565b905095945050505050565b5f815190506125f881611b6e565b92915050565b5f6020828403121561261357612612611b3b565b5b5f612620848285016125ea565b91505092915050565b7f4e487b71000000000000000000000000000000000000000000000000000000005f52601260045260245ffd5b5f6040820190506126695f830185611d2e565b612676602083018461200f565b939250505056fea2646970667358221220a44dae26ed4f30bd6200aa721ffe619db9e92735f61dba43f9cdc99d1e2331a064736f6c63430008140033",
  "immutableReferences": {},
  "source": "// SPDX-License-Identifier: MIT\n\npragma solidity ^0.8.20;\n\nimport \"@openzeppelin/contracts/access/Ownable.sol\";\nimport \"@openzeppelin/contracts/token/ERC721/ERC721.sol\";\n\ncontract AuraSkyNFT is Ownable,ERC721\n{\n    address public host;\n    string key = \"minh\";\n\n    constructor ()  ERC721(\"AuraSky NFT\",\"AuraSkyNFT\") Ownable(0x97400B8c26854f59a419613E94900CdA50F3a38E)\n    {\n        host = msg.sender;\n    }\n\n    function buyNFT(uint nftID , uint priceInWei) external payable   \n    {\n        uint _price =  priceInWei * 1 wei;\n        require(msg.value == _price , \"Dont enough value\");  \n        _safeMint(msg.sender, nftID);\n    }\n\n    function sellNFT(uint nftID) public   \n    {\n        transferFrom((msg.sender), host, nftID);\n    }   \n\n    function sendEther (address recipient , uint amountInWei , string memory _key) public\n    {\n        require(keccak256(abi.encodePacked((_key))) == keccak256(abi.encodePacked((key))), \"khong phai key\");\n        require(recipient == msg.sender, \"Sai cmn nguoi goi roi em\");\n        uint amount = amountInWei * (1 wei);\n        payable(recipient).transfer(amount);\n    }\n\n}\n\n",
  "sourcePath": "/Users/quangminh/Documents/Sources US/CS300-NFTMarketplace/Blockchain/AuraSkyNFT/contracts/AuraSkyNFT.sol",
  "compiler": {
    "name": "solc",
    "version": "0.8.20+commit.a1b79de6.Emscripten.clang"
  },
  "schemaVersion": "3.4.16",
  "updatedAt": "2023-10-14T09:38:00.464Z",
  "devdoc": {
    "errors": {
      "ERC721IncorrectOwner(address,uint256,address)": [
        {
          "details": "Indicates an error related to the ownership over a particular token. Used in transfers.",
          "params": {
            "owner": "Address of the current owner of a token.",
            "sender": "Address whose tokens are being transferred.",
            "tokenId": "Identifier number of a token."
          }
        }
      ],
      "ERC721InsufficientApproval(address,uint256)": [
        {
          "details": "Indicates a failure with the `operator`s approval. Used in transfers.",
          "params": {
            "operator": "Address that may be allowed to operate on tokens without being their owner.",
            "tokenId": "Identifier number of a token."
          }
        }
      ],
      "ERC721InvalidApprover(address)": [
        {
          "details": "Indicates a failure with the `approver` of a token to be approved. Used in approvals.",
          "params": {
            "approver": "Address initiating an approval operation."
          }
        }
      ],
      "ERC721InvalidOperator(address)": [
        {
          "details": "Indicates a failure with the `operator` to be approved. Used in approvals.",
          "params": {
            "operator": "Address that may be allowed to operate on tokens without being their owner."
          }
        }
      ],
      "ERC721InvalidOwner(address)": [
        {
          "details": "Indicates that an address can't be an owner. For example, `address(0)` is a forbidden owner in EIP-20. Used in balance queries.",
          "params": {
            "owner": "Address of the current owner of a token."
          }
        }
      ],
      "ERC721InvalidReceiver(address)": [
        {
          "details": "Indicates a failure with the token `receiver`. Used in transfers.",
          "params": {
            "receiver": "Address to which tokens are being transferred."
          }
        }
      ],
      "ERC721InvalidSender(address)": [
        {
          "details": "Indicates a failure with the token `sender`. Used in transfers.",
          "params": {
            "sender": "Address whose tokens are being transferred."
          }
        }
      ],
      "ERC721NonexistentToken(uint256)": [
        {
          "details": "Indicates a `tokenId` whose `owner` is the zero address.",
          "params": {
            "tokenId": "Identifier number of a token."
          }
        }
      ],
      "OwnableInvalidOwner(address)": [
        {
          "details": "The owner is not a valid owner account. (eg. `address(0)`)"
        }
      ],
      "OwnableUnauthorizedAccount(address)": [
        {
          "details": "The caller account is not authorized to perform an operation."
        }
      ]
    },
    "events": {
      "Approval(address,address,uint256)": {
        "details": "Emitted when `owner` enables `approved` to manage the `tokenId` token."
      },
      "ApprovalForAll(address,address,bool)": {
        "details": "Emitted when `owner` enables or disables (`approved`) `operator` to manage all of its assets."
      },
      "Transfer(address,address,uint256)": {
        "details": "Emitted when `tokenId` token is transferred from `from` to `to`."
      }
    },
    "kind": "dev",
    "methods": {
      "approve(address,uint256)": {
        "details": "See {IERC721-approve}."
      },
      "balanceOf(address)": {
        "details": "See {IERC721-balanceOf}."
      },
      "getApproved(uint256)": {
        "details": "See {IERC721-getApproved}."
      },
      "isApprovedForAll(address,address)": {
        "details": "See {IERC721-isApprovedForAll}."
      },
      "name()": {
        "details": "See {IERC721Metadata-name}."
      },
      "owner()": {
        "details": "Returns the address of the current owner."
      },
      "ownerOf(uint256)": {
        "details": "See {IERC721-ownerOf}."
      },
      "renounceOwnership()": {
        "details": "Leaves the contract without owner. It will not be possible to call `onlyOwner` functions. Can only be called by the current owner. NOTE: Renouncing ownership will leave the contract without an owner, thereby disabling any functionality that is only available to the owner."
      },
      "safeTransferFrom(address,address,uint256)": {
        "details": "See {IERC721-safeTransferFrom}."
      },
      "safeTransferFrom(address,address,uint256,bytes)": {
        "details": "See {IERC721-safeTransferFrom}."
      },
      "setApprovalForAll(address,bool)": {
        "details": "See {IERC721-setApprovalForAll}."
      },
      "supportsInterface(bytes4)": {
        "details": "See {IERC165-supportsInterface}."
      },
      "symbol()": {
        "details": "See {IERC721Metadata-symbol}."
      },
      "tokenURI(uint256)": {
        "details": "See {IERC721Metadata-tokenURI}."
      },
      "transferFrom(address,address,uint256)": {
        "details": "See {IERC721-transferFrom}."
      },
      "transferOwnership(address)": {
        "details": "Transfers ownership of the contract to a new account (`newOwner`). Can only be called by the current owner."
      }
    },
    "version": 1
  },
  "userdoc": {
    "kind": "user",
    "methods": {},
    "version": 1
  }
}