{
  "contractName": "NFTMinh",
  "abi": [
    {
      "inputs": [],
      "stateMutability": "nonpayable",
      "type": "constructor"
    },
    {
      "anonymous": false,
      "inputs": [
        {
          "indexed": true,
          "internalType": "address",
          "name": "owner",
          "type": "address"
        },
        {
          "indexed": true,
          "internalType": "address",
          "name": "approved",
          "type": "address"
        },
        {
          "indexed": true,
          "internalType": "uint256",
          "name": "tokenId",
          "type": "uint256"
        }
      ],
      "name": "Approval",
      "type": "event"
    },
    {
      "anonymous": false,
      "inputs": [
        {
          "indexed": true,
          "internalType": "address",
          "name": "owner",
          "type": "address"
        },
        {
          "indexed": true,
          "internalType": "address",
          "name": "operator",
          "type": "address"
        },
        {
          "indexed": false,
          "internalType": "bool",
          "name": "approved",
          "type": "bool"
        }
      ],
      "name": "ApprovalForAll",
      "type": "event"
    },
    {
      "anonymous": false,
      "inputs": [
        {
          "indexed": true,
          "internalType": "address",
          "name": "previousOwner",
          "type": "address"
        },
        {
          "indexed": true,
          "internalType": "address",
          "name": "newOwner",
          "type": "address"
        }
      ],
      "name": "OwnershipTransferred",
      "type": "event"
    },
    {
      "anonymous": false,
      "inputs": [
        {
          "indexed": true,
          "internalType": "address",
          "name": "from",
          "type": "address"
        },
        {
          "indexed": true,
          "internalType": "address",
          "name": "to",
          "type": "address"
        },
        {
          "indexed": true,
          "internalType": "uint256",
          "name": "tokenId",
          "type": "uint256"
        }
      ],
      "name": "Transfer",
      "type": "event"
    },
    {
      "inputs": [
        {
          "internalType": "address",
          "name": "to",
          "type": "address"
        },
        {
          "internalType": "uint256",
          "name": "tokenId",
          "type": "uint256"
        }
      ],
      "name": "approve",
      "outputs": [],
      "stateMutability": "nonpayable",
      "type": "function"
    },
    {
      "inputs": [
        {
          "internalType": "address",
          "name": "owner",
          "type": "address"
        }
      ],
      "name": "balanceOf",
      "outputs": [
        {
          "internalType": "uint256",
          "name": "",
          "type": "uint256"
        }
      ],
      "stateMutability": "view",
      "type": "function",
      "constant": true
    },
    {
      "inputs": [
        {
          "internalType": "uint256",
          "name": "tokenId",
          "type": "uint256"
        }
      ],
      "name": "getApproved",
      "outputs": [
        {
          "internalType": "address",
          "name": "",
          "type": "address"
        }
      ],
      "stateMutability": "view",
      "type": "function",
      "constant": true
    },
    {
      "inputs": [
        {
          "internalType": "address",
          "name": "owner",
          "type": "address"
        },
        {
          "internalType": "address",
          "name": "operator",
          "type": "address"
        }
      ],
      "name": "isApprovedForAll",
      "outputs": [
        {
          "internalType": "bool",
          "name": "",
          "type": "bool"
        }
      ],
      "stateMutability": "view",
      "type": "function",
      "constant": true
    },
    {
      "inputs": [],
      "name": "isMintEnable",
      "outputs": [
        {
          "internalType": "bool",
          "name": "",
          "type": "bool"
        }
      ],
      "stateMutability": "view",
      "type": "function",
      "constant": true
    },
    {
      "inputs": [],
      "name": "maxSupply",
      "outputs": [
        {
          "internalType": "uint256",
          "name": "",
          "type": "uint256"
        }
      ],
      "stateMutability": "view",
      "type": "function",
      "constant": true
    },
    {
      "inputs": [],
      "name": "mintPrice",
      "outputs": [
        {
          "internalType": "uint256",
          "name": "",
          "type": "uint256"
        }
      ],
      "stateMutability": "view",
      "type": "function",
      "constant": true
    },
    {
      "inputs": [
        {
          "internalType": "address",
          "name": "",
          "type": "address"
        }
      ],
      "name": "mintWallets",
      "outputs": [
        {
          "internalType": "uint256",
          "name": "",
          "type": "uint256"
        }
      ],
      "stateMutability": "view",
      "type": "function",
      "constant": true
    },
    {
      "inputs": [],
      "name": "myTotal",
      "outputs": [
        {
          "internalType": "uint256",
          "name": "",
          "type": "uint256"
        }
      ],
      "stateMutability": "view",
      "type": "function",
      "constant": true
    },
    {
      "inputs": [],
      "name": "name",
      "outputs": [
        {
          "internalType": "string",
          "name": "",
          "type": "string"
        }
      ],
      "stateMutability": "view",
      "type": "function",
      "constant": true
    },
    {
      "inputs": [],
      "name": "owner",
      "outputs": [
        {
          "internalType": "address",
          "name": "",
          "type": "address"
        }
      ],
      "stateMutability": "view",
      "type": "function",
      "constant": true
    },
    {
      "inputs": [
        {
          "internalType": "uint256",
          "name": "tokenId",
          "type": "uint256"
        }
      ],
      "name": "ownerOf",
      "outputs": [
        {
          "internalType": "address",
          "name": "",
          "type": "address"
        }
      ],
      "stateMutability": "view",
      "type": "function",
      "constant": true
    },
    {
      "inputs": [],
      "name": "renounceOwnership",
      "outputs": [],
      "stateMutability": "nonpayable",
      "type": "function"
    },
    {
      "inputs": [
        {
          "internalType": "address",
          "name": "from",
          "type": "address"
        },
        {
          "internalType": "address",
          "name": "to",
          "type": "address"
        },
        {
          "internalType": "uint256",
          "name": "tokenId",
          "type": "uint256"
        }
      ],
      "name": "safeTransferFrom",
      "outputs": [],
      "stateMutability": "nonpayable",
      "type": "function"
    },
    {
      "inputs": [
        {
          "internalType": "address",
          "name": "from",
          "type": "address"
        },
        {
          "internalType": "address",
          "name": "to",
          "type": "address"
        },
        {
          "internalType": "uint256",
          "name": "tokenId",
          "type": "uint256"
        },
        {
          "internalType": "bytes",
          "name": "data",
          "type": "bytes"
        }
      ],
      "name": "safeTransferFrom",
      "outputs": [],
      "stateMutability": "nonpayable",
      "type": "function"
    },
    {
      "inputs": [
        {
          "internalType": "address",
          "name": "operator",
          "type": "address"
        },
        {
          "internalType": "bool",
          "name": "approved",
          "type": "bool"
        }
      ],
      "name": "setApprovalForAll",
      "outputs": [],
      "stateMutability": "nonpayable",
      "type": "function"
    },
    {
      "inputs": [
        {
          "internalType": "bytes4",
          "name": "interfaceId",
          "type": "bytes4"
        }
      ],
      "name": "supportsInterface",
      "outputs": [
        {
          "internalType": "bool",
          "name": "",
          "type": "bool"
        }
      ],
      "stateMutability": "view",
      "type": "function",
      "constant": true
    },
    {
      "inputs": [],
      "name": "symbol",
      "outputs": [
        {
          "internalType": "string",
          "name": "",
          "type": "string"
        }
      ],
      "stateMutability": "view",
      "type": "function",
      "constant": true
    },
    {
      "inputs": [
        {
          "internalType": "uint256",
          "name": "tokenId",
          "type": "uint256"
        }
      ],
      "name": "tokenURI",
      "outputs": [
        {
          "internalType": "string",
          "name": "",
          "type": "string"
        }
      ],
      "stateMutability": "view",
      "type": "function",
      "constant": true
    },
    {
      "inputs": [],
      "name": "totalSupply",
      "outputs": [
        {
          "internalType": "uint256",
          "name": "",
          "type": "uint256"
        }
      ],
      "stateMutability": "view",
      "type": "function",
      "constant": true
    },
    {
      "inputs": [
        {
          "internalType": "address",
          "name": "from",
          "type": "address"
        },
        {
          "internalType": "address",
          "name": "to",
          "type": "address"
        },
        {
          "internalType": "uint256",
          "name": "tokenId",
          "type": "uint256"
        }
      ],
      "name": "transferFrom",
      "outputs": [],
      "stateMutability": "nonpayable",
      "type": "function"
    },
    {
      "inputs": [
        {
          "internalType": "address",
          "name": "newOwner",
          "type": "address"
        }
      ],
      "name": "transferOwnership",
      "outputs": [],
      "stateMutability": "nonpayable",
      "type": "function"
    },
    {
      "inputs": [],
      "name": "user",
      "outputs": [
        {
          "internalType": "address",
          "name": "",
          "type": "address"
        }
      ],
      "stateMutability": "view",
      "type": "function",
      "constant": true
    },
    {
      "inputs": [],
      "name": "toggleIsMintEnabled",
      "outputs": [],
      "stateMutability": "nonpayable",
      "type": "function"
    },
    {
      "inputs": [
        {
          "internalType": "uint256",
          "name": "_maxSupply",
          "type": "uint256"
        }
      ],
      "name": "setMaxSupply",
      "outputs": [],
      "stateMutability": "nonpayable",
      "type": "function"
    },
    {
      "inputs": [],
      "name": "mint",
      "outputs": [],
      "stateMutability": "payable",
      "type": "function",
      "payable": true
    }
  ],
  "bytecode": "0x6080604052662386f26fc100006007556000600b553480156200002157600080fd5b506040518060400160405280600881526020017f4e4654204d696e680000000000000000000000000000000000000000000000008152506040518060400160405280600881526020017f204e46544d696e68000000000000000000000000000000000000000000000000815250620000ae620000a26200012360201b60201c565b6200012b60201b60201c565b8160019081620000bf919062000469565b508060029081620000d1919062000469565b505050600560098190555033600c60006101000a81548173ffffffffffffffffffffffffffffffffffffffff021916908373ffffffffffffffffffffffffffffffffffffffff16021790555062000550565b600033905090565b60008060009054906101000a900473ffffffffffffffffffffffffffffffffffffffff169050816000806101000a81548173ffffffffffffffffffffffffffffffffffffffff021916908373ffffffffffffffffffffffffffffffffffffffff1602179055508173ffffffffffffffffffffffffffffffffffffffff168173ffffffffffffffffffffffffffffffffffffffff167f8be0079c531659141344cd1fd0a4f28419497f9722a3daafe3b4186f6b6457e060405160405180910390a35050565b600081519050919050565b7f4e487b7100000000000000000000000000000000000000000000000000000000600052604160045260246000fd5b7f4e487b7100000000000000000000000000000000000000000000000000000000600052602260045260246000fd5b600060028204905060018216806200027157607f821691505b60208210810362000287576200028662000229565b5b50919050565b60008190508160005260206000209050919050565b60006020601f8301049050919050565b600082821b905092915050565b600060088302620002f17fffffffffffffffffffffffffffffffffffffffffffffffffffffffffffffffff82620002b2565b620002fd8683620002b2565b95508019841693508086168417925050509392505050565b6000819050919050565b6000819050919050565b60006200034a620003446200033e8462000315565b6200031f565b62000315565b9050919050565b6000819050919050565b620003668362000329565b6200037e620003758262000351565b848454620002bf565b825550505050565b600090565b6200039562000386565b620003a28184846200035b565b505050565b5b81811015620003ca57620003be6000826200038b565b600181019050620003a8565b5050565b601f8211156200041957620003e3816200028d565b620003ee84620002a2565b81016020851015620003fe578190505b620004166200040d85620002a2565b830182620003a7565b50505b505050565b600082821c905092915050565b60006200043e600019846008026200041e565b1980831691505092915050565b60006200045983836200042b565b9150826002028217905092915050565b6200047482620001ef565b67ffffffffffffffff81111562000490576200048f620001fa565b5b6200049c825462000258565b620004a9828285620003ce565b600060209050601f831160018114620004e15760008415620004cc578287015190505b620004d885826200044b565b86555062000548565b601f198416620004f1866200028d565b60005b828110156200051b57848901518255600182019150602085019450602081019050620004f4565b868310156200053b578489015162000537601f8916826200042b565b8355505b6001600288020188555050505b505050505050565b612f0880620005606000396000f3fe6080604052600436106101815760003560e01c806370a08231116100d1578063b88d4fde1161008a578063d5abeb0111610064578063d5abeb011461053d578063e37a355714610568578063e985e9c5146105a5578063f2fde38b146105e257610181565b8063b88d4fde146104c0578063c4073217146104e9578063c87b56dd1461050057610181565b806370a08231146103c2578063715018a6146103ff5780638da5cb5b1461041657806395d89b4114610441578063a22cb4651461046c578063a2a31ebd1461049557610181565b806323b872dd1161013e5780634f8632ba116101185780634f8632ba146103065780636352211e146103315780636817c76c1461036e5780636f8b44b01461039957610181565b806323b872dd1461028957806327454b6d146102b257806342842e0e146102dd57610181565b806301ffc9a71461018657806306fdde03146101c3578063081812fc146101ee578063095ea7b31461022b5780631249c58b1461025457806318160ddd1461025e575b600080fd5b34801561019257600080fd5b506101ad60048036038101906101a89190611de6565b61060b565b6040516101ba9190611e2e565b60405180910390f35b3480156101cf57600080fd5b506101d86106ed565b6040516101e59190611ed9565b60405180910390f35b3480156101fa57600080fd5b5061021560048036038101906102109190611f31565b61077f565b6040516102229190611f9f565b60405180910390f35b34801561023757600080fd5b50610252600480360381019061024d9190611fe6565b6107c5565b005b61025c6108dc565b005b34801561026a57600080fd5b50610273610ab9565b6040516102809190612035565b60405180910390f35b34801561029557600080fd5b506102b060048036038101906102ab9190612050565b610abf565b005b3480156102be57600080fd5b506102c7610b1f565b6040516102d49190612035565b60405180910390f35b3480156102e957600080fd5b5061030460048036038101906102ff9190612050565b610b25565b005b34801561031257600080fd5b5061031b610b45565b6040516103289190611f9f565b60405180910390f35b34801561033d57600080fd5b5061035860048036038101906103539190611f31565b610b6b565b6040516103659190611f9f565b60405180910390f35b34801561037a57600080fd5b50610383610c1c565b6040516103909190612035565b60405180910390f35b3480156103a557600080fd5b506103c060048036038101906103bb9190611f31565b610c22565b005b3480156103ce57600080fd5b506103e960048036038101906103e491906120a3565b610c34565b6040516103f69190612035565b60405180910390f35b34801561040b57600080fd5b50610414610ceb565b005b34801561042257600080fd5b5061042b610cff565b6040516104389190611f9f565b60405180910390f35b34801561044d57600080fd5b50610456610d28565b6040516104639190611ed9565b60405180910390f35b34801561047857600080fd5b50610493600480360381019061048e91906120fc565b610dba565b005b3480156104a157600080fd5b506104aa610dd0565b6040516104b79190611e2e565b60405180910390f35b3480156104cc57600080fd5b506104e760048036038101906104e29190612271565b610de3565b005b3480156104f557600080fd5b506104fe610e45565b005b34801561050c57600080fd5b5061052760048036038101906105229190611f31565b610e79565b6040516105349190611ed9565b60405180910390f35b34801561054957600080fd5b50610552610ee1565b60405161055f9190612035565b60405180910390f35b34801561057457600080fd5b5061058f600480360381019061058a91906120a3565b610ee7565b60405161059c9190612035565b60405180910390f35b3480156105b157600080fd5b506105cc60048036038101906105c791906122f4565b610eff565b6040516105d99190611e2e565b60405180910390f35b3480156105ee57600080fd5b50610609600480360381019061060491906120a3565b610f93565b005b60007f80ac58cd000000000000000000000000000000000000000000000000000000007bffffffffffffffffffffffffffffffffffffffffffffffffffffffff1916827bffffffffffffffffffffffffffffffffffffffffffffffffffffffff191614806106d657507f5b5e139f000000000000000000000000000000000000000000000000000000007bffffffffffffffffffffffffffffffffffffffffffffffffffffffff1916827bffffffffffffffffffffffffffffffffffffffffffffffffffffffff1916145b806106e657506106e582611016565b5b9050919050565b6060600180546106fc90612363565b80601f016020809104026020016040519081016040528092919081815260200182805461072890612363565b80156107755780601f1061074a57610100808354040283529160200191610775565b820191906000526020600020905b81548152906001019060200180831161075857829003601f168201915b5050505050905090565b600061078a82611080565b6005600083815260200190815260200160002060009054906101000a900473ffffffffffffffffffffffffffffffffffffffff169050919050565b60006107d082610b6b565b90508073ffffffffffffffffffffffffffffffffffffffff168373ffffffffffffffffffffffffffffffffffffffff1603610840576040517f08c379a000000000000000000000000000000000000000000000000000000000815260040161083790612406565b60405180910390fd5b8073ffffffffffffffffffffffffffffffffffffffff1661085f6110cb565b73ffffffffffffffffffffffffffffffffffffffff16148061088e575061088d816108886110cb565b610eff565b5b6108cd576040517f08c379a00000000000000000000000000000000000000000000000000000000081526004016108c490612498565b60405180910390fd5b6108d783836110d3565b505050565b600a60009054906101000a900460ff1661092b576040517f08c379a000000000000000000000000000000000000000000000000000000000815260040161092290612504565b60405180910390fd5b6001600d60003373ffffffffffffffffffffffffffffffffffffffff1673ffffffffffffffffffffffffffffffffffffffff16815260200190815260200160002054106109ad576040517f08c379a00000000000000000000000000000000000000000000000000000000081526004016109a490612570565b60405180910390fd5b662386f26fc1000034146109f6576040517f08c379a00000000000000000000000000000000000000000000000000000000081526004016109ed906125dc565b60405180910390fd5b60085460095411610a3c576040517f08c379a0000000000000000000000000000000000000000000000000000000008152600401610a3390612648565b60405180910390fd5b600d60003373ffffffffffffffffffffffffffffffffffffffff1673ffffffffffffffffffffffffffffffffffffffff1681526020019081526020016000206000815480929190610a8c90612697565b9190505550600160086000828254610aa491906126df565b92505081905550610ab73360085461118c565b565b60085481565b610ad0610aca6110cb565b826111aa565b610b0f576040517f08c379a0000000000000000000000000000000000000000000000000000000008152600401610b0690612785565b60405180910390fd5b610b1a83838361123f565b505050565b600b5481565b610b4083838360405180602001604052806000815250610de3565b505050565b600c60009054906101000a900473ffffffffffffffffffffffffffffffffffffffff1681565b6000806003600084815260200190815260200160002060009054906101000a900473ffffffffffffffffffffffffffffffffffffffff169050600073ffffffffffffffffffffffffffffffffffffffff168173ffffffffffffffffffffffffffffffffffffffff1603610c13576040517f08c379a0000000000000000000000000000000000000000000000000000000008152600401610c0a906127f1565b60405180910390fd5b80915050919050565b60075481565b610c2a6114a5565b8060098190555050565b60008073ffffffffffffffffffffffffffffffffffffffff168273ffffffffffffffffffffffffffffffffffffffff1603610ca4576040517f08c379a0000000000000000000000000000000000000000000000000000000008152600401610c9b90612883565b60405180910390fd5b600460008373ffffffffffffffffffffffffffffffffffffffff1673ffffffffffffffffffffffffffffffffffffffff168152602001908152602001600020549050919050565b610cf36114a5565b610cfd6000611523565b565b60008060009054906101000a900473ffffffffffffffffffffffffffffffffffffffff16905090565b606060028054610d3790612363565b80601f0160208091040260200160405190810160405280929190818152602001828054610d6390612363565b8015610db05780601f10610d8557610100808354040283529160200191610db0565b820191906000526020600020905b815481529060010190602001808311610d9357829003601f168201915b5050505050905090565b610dcc610dc56110cb565b83836115e7565b5050565b600a60009054906101000a900460ff1681565b610df4610dee6110cb565b836111aa565b610e33576040517f08c379a0000000000000000000000000000000000000000000000000000000008152600401610e2a90612785565b60405180910390fd5b610e3f84848484611753565b50505050565b610e4d6114a5565b600a60009054906101000a900460ff1615600a60006101000a81548160ff021916908315150217905550565b6060610e8482611080565b6000610e8e6117af565b90506000815111610eae5760405180602001604052806000815250610ed9565b80610eb8846117c6565b604051602001610ec99291906128df565b6040516020818303038152906040525b915050919050565b60095481565b600d6020528060005260406000206000915090505481565b6000600660008473ffffffffffffffffffffffffffffffffffffffff1673ffffffffffffffffffffffffffffffffffffffff16815260200190815260200160002060008373ffffffffffffffffffffffffffffffffffffffff1673ffffffffffffffffffffffffffffffffffffffff16815260200190815260200160002060009054906101000a900460ff16905092915050565b610f9b6114a5565b600073ffffffffffffffffffffffffffffffffffffffff168173ffffffffffffffffffffffffffffffffffffffff160361100a576040517f08c379a000000000000000000000000000000000000000000000000000000000815260040161100190612975565b60405180910390fd5b61101381611523565b50565b60007f01ffc9a7000000000000000000000000000000000000000000000000000000007bffffffffffffffffffffffffffffffffffffffffffffffffffffffff1916827bffffffffffffffffffffffffffffffffffffffffffffffffffffffff1916149050919050565b61108981611926565b6110c8576040517f08c379a00000000000000000000000000000000000000000000000000000000081526004016110bf906127f1565b60405180910390fd5b50565b600033905090565b816005600083815260200190815260200160002060006101000a81548173ffffffffffffffffffffffffffffffffffffffff021916908373ffffffffffffffffffffffffffffffffffffffff160217905550808273ffffffffffffffffffffffffffffffffffffffff1661114683610b6b565b73ffffffffffffffffffffffffffffffffffffffff167f8c5be1e5ebec7d5bd14f71427d1e84f3dd0314c0f7b2291e5b200ac8c7c3b92560405160405180910390a45050565b6111a6828260405180602001604052806000815250611992565b5050565b6000806111b683610b6b565b90508073ffffffffffffffffffffffffffffffffffffffff168473ffffffffffffffffffffffffffffffffffffffff1614806111f857506111f78185610eff565b5b8061123657508373ffffffffffffffffffffffffffffffffffffffff1661121e8461077f565b73ffffffffffffffffffffffffffffffffffffffff16145b91505092915050565b8273ffffffffffffffffffffffffffffffffffffffff1661125f82610b6b565b73ffffffffffffffffffffffffffffffffffffffff16146112b5576040517f08c379a00000000000000000000000000000000000000000000000000000000081526004016112ac90612a07565b60405180910390fd5b600073ffffffffffffffffffffffffffffffffffffffff168273ffffffffffffffffffffffffffffffffffffffff1603611324576040517f08c379a000000000000000000000000000000000000000000000000000000000815260040161131b90612a99565b60405180910390fd5b61132f8383836119ed565b61133a6000826110d3565b6001600460008573ffffffffffffffffffffffffffffffffffffffff1673ffffffffffffffffffffffffffffffffffffffff168152602001908152602001600020600082825461138a9190612ab9565b925050819055506001600460008473ffffffffffffffffffffffffffffffffffffffff1673ffffffffffffffffffffffffffffffffffffffff16815260200190815260200160002060008282546113e191906126df565b92505081905550816003600083815260200190815260200160002060006101000a81548173ffffffffffffffffffffffffffffffffffffffff021916908373ffffffffffffffffffffffffffffffffffffffff160217905550808273ffffffffffffffffffffffffffffffffffffffff168473ffffffffffffffffffffffffffffffffffffffff167fddf252ad1be2c89b69c2b068fc378daa952ba7f163c4a11628f55a4df523b3ef60405160405180910390a46114a08383836119f2565b505050565b6114ad6110cb565b73ffffffffffffffffffffffffffffffffffffffff166114cb610cff565b73ffffffffffffffffffffffffffffffffffffffff1614611521576040517f08c379a000000000000000000000000000000000000000000000000000000000815260040161151890612b39565b60405180910390fd5b565b60008060009054906101000a900473ffffffffffffffffffffffffffffffffffffffff169050816000806101000a81548173ffffffffffffffffffffffffffffffffffffffff021916908373ffffffffffffffffffffffffffffffffffffffff1602179055508173ffffffffffffffffffffffffffffffffffffffff168173ffffffffffffffffffffffffffffffffffffffff167f8be0079c531659141344cd1fd0a4f28419497f9722a3daafe3b4186f6b6457e060405160405180910390a35050565b8173ffffffffffffffffffffffffffffffffffffffff168373ffffffffffffffffffffffffffffffffffffffff1603611655576040517f08c379a000000000000000000000000000000000000000000000000000000000815260040161164c90612ba5565b60405180910390fd5b80600660008573ffffffffffffffffffffffffffffffffffffffff1673ffffffffffffffffffffffffffffffffffffffff16815260200190815260200160002060008473ffffffffffffffffffffffffffffffffffffffff1673ffffffffffffffffffffffffffffffffffffffff16815260200190815260200160002060006101000a81548160ff0219169083151502179055508173ffffffffffffffffffffffffffffffffffffffff168373ffffffffffffffffffffffffffffffffffffffff167f17307eab39ab6107e8899845ad3d59bd9653f200f220920489ca2b5937696c31836040516117469190611e2e565b60405180910390a3505050565b61175e84848461123f565b61176a848484846119f7565b6117a9576040517f08c379a00000000000000000000000000000000000000000000000000000000081526004016117a090612c37565b60405180910390fd5b50505050565b606060405180602001604052806000815250905090565b60606000820361180d576040518060400160405280600181526020017f30000000000000000000000000000000000000000000000000000000000000008152509050611921565b600082905060005b6000821461183f57808061182890612697565b915050600a826118389190612c86565b9150611815565b60008167ffffffffffffffff81111561185b5761185a612146565b5b6040519080825280601f01601f19166020018201604052801561188d5781602001600182028036833780820191505090505b5090505b6000851461191a576001826118a69190612ab9565b9150600a856118b59190612cb7565b60306118c191906126df565b60f81b8183815181106118d7576118d6612ce8565b5b60200101907effffffffffffffffffffffffffffffffffffffffffffffffffffffffffffff1916908160001a905350600a856119139190612c86565b9450611891565b8093505050505b919050565b60008073ffffffffffffffffffffffffffffffffffffffff166003600084815260200190815260200160002060009054906101000a900473ffffffffffffffffffffffffffffffffffffffff1673ffffffffffffffffffffffffffffffffffffffff1614159050919050565b61199c8383611b7e565b6119a960008484846119f7565b6119e8576040517f08c379a00000000000000000000000000000000000000000000000000000000081526004016119df90612c37565b60405180910390fd5b505050565b505050565b505050565b6000611a188473ffffffffffffffffffffffffffffffffffffffff16611d57565b15611b71578373ffffffffffffffffffffffffffffffffffffffff1663150b7a02611a416110cb565b8786866040518563ffffffff1660e01b8152600401611a639493929190612d6c565b6020604051808303816000875af1925050508015611a9f57506040513d601f19601f82011682018060405250810190611a9c9190612dcd565b60015b611b21573d8060008114611acf576040519150601f19603f3d011682016040523d82523d6000602084013e611ad4565b606091505b506000815103611b19576040517f08c379a0000000000000000000000000000000000000000000000000000000008152600401611b1090612c37565b60405180910390fd5b805181602001fd5b63150b7a0260e01b7bffffffffffffffffffffffffffffffffffffffffffffffffffffffff1916817bffffffffffffffffffffffffffffffffffffffffffffffffffffffff191614915050611b76565b600190505b949350505050565b600073ffffffffffffffffffffffffffffffffffffffff168273ffffffffffffffffffffffffffffffffffffffff1603611bed576040517f08c379a0000000000000000000000000000000000000000000000000000000008152600401611be490612e46565b60405180910390fd5b611bf681611926565b15611c36576040517f08c379a0000000000000000000000000000000000000000000000000000000008152600401611c2d90612eb2565b60405180910390fd5b611c42600083836119ed565b6001600460008473ffffffffffffffffffffffffffffffffffffffff1673ffffffffffffffffffffffffffffffffffffffff1681526020019081526020016000206000828254611c9291906126df565b92505081905550816003600083815260200190815260200160002060006101000a81548173ffffffffffffffffffffffffffffffffffffffff021916908373ffffffffffffffffffffffffffffffffffffffff160217905550808273ffffffffffffffffffffffffffffffffffffffff16600073ffffffffffffffffffffffffffffffffffffffff167fddf252ad1be2c89b69c2b068fc378daa952ba7f163c4a11628f55a4df523b3ef60405160405180910390a4611d53600083836119f2565b5050565b6000808273ffffffffffffffffffffffffffffffffffffffff163b119050919050565b6000604051905090565b600080fd5b600080fd5b60007fffffffff0000000000000000000000000000000000000000000000000000000082169050919050565b611dc381611d8e565b8114611dce57600080fd5b50565b600081359050611de081611dba565b92915050565b600060208284031215611dfc57611dfb611d84565b5b6000611e0a84828501611dd1565b91505092915050565b60008115159050919050565b611e2881611e13565b82525050565b6000602082019050611e436000830184611e1f565b92915050565b600081519050919050565b600082825260208201905092915050565b60005b83811015611e83578082015181840152602081019050611e68565b60008484015250505050565b6000601f19601f8301169050919050565b6000611eab82611e49565b611eb58185611e54565b9350611ec5818560208601611e65565b611ece81611e8f565b840191505092915050565b60006020820190508181036000830152611ef38184611ea0565b905092915050565b6000819050919050565b611f0e81611efb565b8114611f1957600080fd5b50565b600081359050611f2b81611f05565b92915050565b600060208284031215611f4757611f46611d84565b5b6000611f5584828501611f1c565b91505092915050565b600073ffffffffffffffffffffffffffffffffffffffff82169050919050565b6000611f8982611f5e565b9050919050565b611f9981611f7e565b82525050565b6000602082019050611fb46000830184611f90565b92915050565b611fc381611f7e565b8114611fce57600080fd5b50565b600081359050611fe081611fba565b92915050565b60008060408385031215611ffd57611ffc611d84565b5b600061200b85828601611fd1565b925050602061201c85828601611f1c565b9150509250929050565b61202f81611efb565b82525050565b600060208201905061204a6000830184612026565b92915050565b60008060006060848603121561206957612068611d84565b5b600061207786828701611fd1565b935050602061208886828701611fd1565b925050604061209986828701611f1c565b9150509250925092565b6000602082840312156120b9576120b8611d84565b5b60006120c784828501611fd1565b91505092915050565b6120d981611e13565b81146120e457600080fd5b50565b6000813590506120f6816120d0565b92915050565b6000806040838503121561211357612112611d84565b5b600061212185828601611fd1565b9250506020612132858286016120e7565b9150509250929050565b600080fd5b600080fd5b7f4e487b7100000000000000000000000000000000000000000000000000000000600052604160045260246000fd5b61217e82611e8f565b810181811067ffffffffffffffff8211171561219d5761219c612146565b5b80604052505050565b60006121b0611d7a565b90506121bc8282612175565b919050565b600067ffffffffffffffff8211156121dc576121db612146565b5b6121e582611e8f565b9050602081019050919050565b82818337600083830152505050565b600061221461220f846121c1565b6121a6565b9050828152602081018484840111156122305761222f612141565b5b61223b8482856121f2565b509392505050565b600082601f8301126122585761225761213c565b5b8135612268848260208601612201565b91505092915050565b6000806000806080858703121561228b5761228a611d84565b5b600061229987828801611fd1565b94505060206122aa87828801611fd1565b93505060406122bb87828801611f1c565b925050606085013567ffffffffffffffff8111156122dc576122db611d89565b5b6122e887828801612243565b91505092959194509250565b6000806040838503121561230b5761230a611d84565b5b600061231985828601611fd1565b925050602061232a85828601611fd1565b9150509250929050565b7f4e487b7100000000000000000000000000000000000000000000000000000000600052602260045260246000fd5b6000600282049050600182168061237b57607f821691505b60208210810361238e5761238d612334565b5b50919050565b7f4552433732313a20617070726f76616c20746f2063757272656e74206f776e6560008201527f7200000000000000000000000000000000000000000000000000000000000000602082015250565b60006123f0602183611e54565b91506123fb82612394565b604082019050919050565b6000602082019050818103600083015261241f816123e3565b9050919050565b7f4552433732313a20617070726f76652063616c6c6572206973206e6f7420746f60008201527f6b656e206f776e6572206e6f7220617070726f76656420666f7220616c6c0000602082015250565b6000612482603e83611e54565b915061248d82612426565b604082019050919050565b600060208201905081810360008301526124b181612475565b9050919050565b7f6d696e74696e67206e6f7420656e61626c656400000000000000000000000000600082015250565b60006124ee601383611e54565b91506124f9826124b8565b602082019050919050565b6000602082019050818103600083015261251d816124e1565b9050919050565b7f65786365656473206d6178000000000000000000000000000000000000000000600082015250565b600061255a600b83611e54565b915061256582612524565b602082019050919050565b600060208201905081810360008301526125898161254d565b9050919050565b7f446f6e7420656e6f7567682076616c7565000000000000000000000000000000600082015250565b60006125c6601183611e54565b91506125d182612590565b602082019050919050565b600060208201905081810360008301526125f5816125b9565b9050919050565b7f736f6c64206f7574000000000000000000000000000000000000000000000000600082015250565b6000612632600883611e54565b915061263d826125fc565b602082019050919050565b6000602082019050818103600083015261266181612625565b9050919050565b7f4e487b7100000000000000000000000000000000000000000000000000000000600052601160045260246000fd5b60006126a282611efb565b91507fffffffffffffffffffffffffffffffffffffffffffffffffffffffffffffffff82036126d4576126d3612668565b5b600182019050919050565b60006126ea82611efb565b91506126f583611efb565b925082820190508082111561270d5761270c612668565b5b92915050565b7f4552433732313a2063616c6c6572206973206e6f7420746f6b656e206f776e6560008201527f72206e6f7220617070726f766564000000000000000000000000000000000000602082015250565b600061276f602e83611e54565b915061277a82612713565b604082019050919050565b6000602082019050818103600083015261279e81612762565b9050919050565b7f4552433732313a20696e76616c696420746f6b656e2049440000000000000000600082015250565b60006127db601883611e54565b91506127e6826127a5565b602082019050919050565b6000602082019050818103600083015261280a816127ce565b9050919050565b7f4552433732313a2061646472657373207a65726f206973206e6f74206120766160008201527f6c6964206f776e65720000000000000000000000000000000000000000000000602082015250565b600061286d602983611e54565b915061287882612811565b604082019050919050565b6000602082019050818103600083015261289c81612860565b9050919050565b600081905092915050565b60006128b982611e49565b6128c381856128a3565b93506128d3818560208601611e65565b80840191505092915050565b60006128eb82856128ae565b91506128f782846128ae565b91508190509392505050565b7f4f776e61626c653a206e6577206f776e657220697320746865207a65726f206160008201527f6464726573730000000000000000000000000000000000000000000000000000602082015250565b600061295f602683611e54565b915061296a82612903565b604082019050919050565b6000602082019050818103600083015261298e81612952565b9050919050565b7f4552433732313a207472616e736665722066726f6d20696e636f72726563742060008201527f6f776e6572000000000000000000000000000000000000000000000000000000602082015250565b60006129f1602583611e54565b91506129fc82612995565b604082019050919050565b60006020820190508181036000830152612a20816129e4565b9050919050565b7f4552433732313a207472616e7366657220746f20746865207a65726f2061646460008201527f7265737300000000000000000000000000000000000000000000000000000000602082015250565b6000612a83602483611e54565b9150612a8e82612a27565b604082019050919050565b60006020820190508181036000830152612ab281612a76565b9050919050565b6000612ac482611efb565b9150612acf83611efb565b9250828203905081811115612ae757612ae6612668565b5b92915050565b7f4f776e61626c653a2063616c6c6572206973206e6f7420746865206f776e6572600082015250565b6000612b23602083611e54565b9150612b2e82612aed565b602082019050919050565b60006020820190508181036000830152612b5281612b16565b9050919050565b7f4552433732313a20617070726f766520746f2063616c6c657200000000000000600082015250565b6000612b8f601983611e54565b9150612b9a82612b59565b602082019050919050565b60006020820190508181036000830152612bbe81612b82565b9050919050565b7f4552433732313a207472616e7366657220746f206e6f6e20455243373231526560008201527f63656976657220696d706c656d656e7465720000000000000000000000000000602082015250565b6000612c21603283611e54565b9150612c2c82612bc5565b604082019050919050565b60006020820190508181036000830152612c5081612c14565b9050919050565b7f4e487b7100000000000000000000000000000000000000000000000000000000600052601260045260246000fd5b6000612c9182611efb565b9150612c9c83611efb565b925082612cac57612cab612c57565b5b828204905092915050565b6000612cc282611efb565b9150612ccd83611efb565b925082612cdd57612cdc612c57565b5b828206905092915050565b7f4e487b7100000000000000000000000000000000000000000000000000000000600052603260045260246000fd5b600081519050919050565b600082825260208201905092915050565b6000612d3e82612d17565b612d488185612d22565b9350612d58818560208601611e65565b612d6181611e8f565b840191505092915050565b6000608082019050612d816000830187611f90565b612d8e6020830186611f90565b612d9b6040830185612026565b8181036060830152612dad8184612d33565b905095945050505050565b600081519050612dc781611dba565b92915050565b600060208284031215612de357612de2611d84565b5b6000612df184828501612db8565b91505092915050565b7f4552433732313a206d696e7420746f20746865207a65726f2061646472657373600082015250565b6000612e30602083611e54565b9150612e3b82612dfa565b602082019050919050565b60006020820190508181036000830152612e5f81612e23565b9050919050565b7f4552433732313a20746f6b656e20616c7265616479206d696e74656400000000600082015250565b6000612e9c601c83611e54565b9150612ea782612e66565b602082019050919050565b60006020820190508181036000830152612ecb81612e8f565b905091905056fea26469706673582212201077e0bc45267abd831b7b502a59d16181b8e07e40424fb8d7d5df2e1e2e3af164736f6c63430008110033",
  "immutableReferences": {},
  "source": "// SPDX-License-Identifier: MIT\r\n\r\npragma solidity ^0.8.0;\r\n\r\nimport \"@openzeppelin/contracts/access/Ownable.sol\";\r\nimport \"@openzeppelin/contracts/token/ERC721/ERC721.sol\";\r\n\r\ncontract NFTMinh is Ownable,ERC721\r\n{\r\n    uint public mintPrice = 0.01 ether;\r\n    uint public totalSupply ;\r\n    uint public maxSupply;\r\n    bool public isMintEnable;\r\n    uint public myTotal =0;\r\n    address public user;\r\n    mapping(address=>uint256) public mintWallets;\r\n\r\n    constructor ()  ERC721(\"NFT Minh\",\" NFTMinh\")\r\n    {\r\n        maxSupply=5;\r\n        user = msg.sender;\r\n    }\r\n\r\n    function toggleIsMintEnabled() external onlyOwner\r\n    {\r\n        isMintEnable = !isMintEnable;\r\n    }\r\n\r\n    function setMaxSupply(uint _maxSupply) external onlyOwner\r\n    {\r\n        maxSupply=_maxSupply;\r\n    }\r\n\r\n    function mint() external payable\r\n    {\r\n        require(isMintEnable,\"minting not enabled\");\r\n        require(mintWallets[msg.sender] <1 ,\"exceeds max\");\r\n        require(msg.value == 0.01 ether,\"Dont enough value\");\r\n        require(maxSupply > totalSupply, \"sold out\");\r\n\r\n        mintWallets[msg.sender] ++;\r\n        totalSupply +=1;\r\n        _safeMint(msg.sender,totalSupply);\r\n    } \r\n}",
  "sourcePath": "D:\\CS300\\Blockchain\\Seazle NFT\\contracts\\SeazleNFT.sol",
  "compiler": {
    "name": "solc",
    "version": "0.8.17+commit.8df45f5f.Emscripten.clang"
  },
  "schemaVersion": "3.4.10",
  "updatedAt": "2022-10-31T13:17:47.660Z",
  "networkType": "ethereum",
  "devdoc": {
    "kind": "dev",
    "methods": {
      "approve(address,uint256)": {
        "details": "See {IERC721-approve}."
      },
      "balanceOf(address)": {
        "details": "See {IERC721-balanceOf}."
      },
      "getApproved(uint256)": {
        "details": "See {IERC721-getApproved}."
      },
      "isApprovedForAll(address,address)": {
        "details": "See {IERC721-isApprovedForAll}."
      },
      "name()": {
        "details": "See {IERC721Metadata-name}."
      },
      "owner()": {
        "details": "Returns the address of the current owner."
      },
      "ownerOf(uint256)": {
        "details": "See {IERC721-ownerOf}."
      },
      "renounceOwnership()": {
        "details": "Leaves the contract without owner. It will not be possible to call `onlyOwner` functions anymore. Can only be called by the current owner. NOTE: Renouncing ownership will leave the contract without an owner, thereby removing any functionality that is only available to the owner."
      },
      "safeTransferFrom(address,address,uint256)": {
        "details": "See {IERC721-safeTransferFrom}."
      },
      "safeTransferFrom(address,address,uint256,bytes)": {
        "details": "See {IERC721-safeTransferFrom}."
      },
      "setApprovalForAll(address,bool)": {
        "details": "See {IERC721-setApprovalForAll}."
      },
      "supportsInterface(bytes4)": {
        "details": "See {IERC165-supportsInterface}."
      },
      "symbol()": {
        "details": "See {IERC721Metadata-symbol}."
      },
      "tokenURI(uint256)": {
        "details": "See {IERC721Metadata-tokenURI}."
      },
      "transferFrom(address,address,uint256)": {
        "details": "See {IERC721-transferFrom}."
      },
      "transferOwnership(address)": {
        "details": "Transfers ownership of the contract to a new account (`newOwner`). Can only be called by the current owner."
      }
    },
    "version": 1
  },
  "userdoc": {
    "kind": "user",
    "methods": {},
    "version": 1
  }
}