{
  "contractName": "SeazleNFT",
  "abi": [
    {
      "inputs": [],
      "stateMutability": "nonpayable",
      "type": "constructor"
    },
    {
      "anonymous": false,
      "inputs": [
        {
          "indexed": true,
          "internalType": "address",
          "name": "owner",
          "type": "address"
        },
        {
          "indexed": true,
          "internalType": "address",
          "name": "approved",
          "type": "address"
        },
        {
          "indexed": true,
          "internalType": "uint256",
          "name": "tokenId",
          "type": "uint256"
        }
      ],
      "name": "Approval",
      "type": "event"
    },
    {
      "anonymous": false,
      "inputs": [
        {
          "indexed": true,
          "internalType": "address",
          "name": "owner",
          "type": "address"
        },
        {
          "indexed": true,
          "internalType": "address",
          "name": "operator",
          "type": "address"
        },
        {
          "indexed": false,
          "internalType": "bool",
          "name": "approved",
          "type": "bool"
        }
      ],
      "name": "ApprovalForAll",
      "type": "event"
    },
    {
      "anonymous": false,
      "inputs": [
        {
          "indexed": true,
          "internalType": "address",
          "name": "previousOwner",
          "type": "address"
        },
        {
          "indexed": true,
          "internalType": "address",
          "name": "newOwner",
          "type": "address"
        }
      ],
      "name": "OwnershipTransferred",
      "type": "event"
    },
    {
      "anonymous": false,
      "inputs": [
        {
          "indexed": true,
          "internalType": "address",
          "name": "from",
          "type": "address"
        },
        {
          "indexed": true,
          "internalType": "address",
          "name": "to",
          "type": "address"
        },
        {
          "indexed": true,
          "internalType": "uint256",
          "name": "tokenId",
          "type": "uint256"
        }
      ],
      "name": "Transfer",
      "type": "event"
    },
    {
      "inputs": [
        {
          "internalType": "address",
          "name": "to",
          "type": "address"
        },
        {
          "internalType": "uint256",
          "name": "tokenId",
          "type": "uint256"
        }
      ],
      "name": "approve",
      "outputs": [],
      "stateMutability": "nonpayable",
      "type": "function"
    },
    {
      "inputs": [
        {
          "internalType": "address",
          "name": "owner",
          "type": "address"
        }
      ],
      "name": "balanceOf",
      "outputs": [
        {
          "internalType": "uint256",
          "name": "",
          "type": "uint256"
        }
      ],
      "stateMutability": "view",
      "type": "function",
      "constant": true
    },
    {
      "inputs": [
        {
          "internalType": "uint256",
          "name": "tokenId",
          "type": "uint256"
        }
      ],
      "name": "getApproved",
      "outputs": [
        {
          "internalType": "address",
          "name": "",
          "type": "address"
        }
      ],
      "stateMutability": "view",
      "type": "function",
      "constant": true
    },
    {
      "inputs": [],
      "name": "host",
      "outputs": [
        {
          "internalType": "address",
          "name": "",
          "type": "address"
        }
      ],
      "stateMutability": "view",
      "type": "function",
      "constant": true
    },
    {
      "inputs": [
        {
          "internalType": "address",
          "name": "owner",
          "type": "address"
        },
        {
          "internalType": "address",
          "name": "operator",
          "type": "address"
        }
      ],
      "name": "isApprovedForAll",
      "outputs": [
        {
          "internalType": "bool",
          "name": "",
          "type": "bool"
        }
      ],
      "stateMutability": "view",
      "type": "function",
      "constant": true
    },
    {
      "inputs": [],
      "name": "myTotal",
      "outputs": [
        {
          "internalType": "uint256",
          "name": "",
          "type": "uint256"
        }
      ],
      "stateMutability": "view",
      "type": "function",
      "constant": true
    },
    {
      "inputs": [],
      "name": "name",
      "outputs": [
        {
          "internalType": "string",
          "name": "",
          "type": "string"
        }
      ],
      "stateMutability": "view",
      "type": "function",
      "constant": true
    },
    {
      "inputs": [],
      "name": "owner",
      "outputs": [
        {
          "internalType": "address",
          "name": "",
          "type": "address"
        }
      ],
      "stateMutability": "view",
      "type": "function",
      "constant": true
    },
    {
      "inputs": [
        {
          "internalType": "uint256",
          "name": "tokenId",
          "type": "uint256"
        }
      ],
      "name": "ownerOf",
      "outputs": [
        {
          "internalType": "address",
          "name": "",
          "type": "address"
        }
      ],
      "stateMutability": "view",
      "type": "function",
      "constant": true
    },
    {
      "inputs": [],
      "name": "renounceOwnership",
      "outputs": [],
      "stateMutability": "nonpayable",
      "type": "function"
    },
    {
      "inputs": [
        {
          "internalType": "address",
          "name": "from",
          "type": "address"
        },
        {
          "internalType": "address",
          "name": "to",
          "type": "address"
        },
        {
          "internalType": "uint256",
          "name": "tokenId",
          "type": "uint256"
        }
      ],
      "name": "safeTransferFrom",
      "outputs": [],
      "stateMutability": "nonpayable",
      "type": "function"
    },
    {
      "inputs": [
        {
          "internalType": "address",
          "name": "from",
          "type": "address"
        },
        {
          "internalType": "address",
          "name": "to",
          "type": "address"
        },
        {
          "internalType": "uint256",
          "name": "tokenId",
          "type": "uint256"
        },
        {
          "internalType": "bytes",
          "name": "data",
          "type": "bytes"
        }
      ],
      "name": "safeTransferFrom",
      "outputs": [],
      "stateMutability": "nonpayable",
      "type": "function"
    },
    {
      "inputs": [
        {
          "internalType": "address",
          "name": "operator",
          "type": "address"
        },
        {
          "internalType": "bool",
          "name": "approved",
          "type": "bool"
        }
      ],
      "name": "setApprovalForAll",
      "outputs": [],
      "stateMutability": "nonpayable",
      "type": "function"
    },
    {
      "inputs": [
        {
          "internalType": "bytes4",
          "name": "interfaceId",
          "type": "bytes4"
        }
      ],
      "name": "supportsInterface",
      "outputs": [
        {
          "internalType": "bool",
          "name": "",
          "type": "bool"
        }
      ],
      "stateMutability": "view",
      "type": "function",
      "constant": true
    },
    {
      "inputs": [],
      "name": "symbol",
      "outputs": [
        {
          "internalType": "string",
          "name": "",
          "type": "string"
        }
      ],
      "stateMutability": "view",
      "type": "function",
      "constant": true
    },
    {
      "inputs": [
        {
          "internalType": "uint256",
          "name": "tokenId",
          "type": "uint256"
        }
      ],
      "name": "tokenURI",
      "outputs": [
        {
          "internalType": "string",
          "name": "",
          "type": "string"
        }
      ],
      "stateMutability": "view",
      "type": "function",
      "constant": true
    },
    {
      "inputs": [
        {
          "internalType": "address",
          "name": "from",
          "type": "address"
        },
        {
          "internalType": "address",
          "name": "to",
          "type": "address"
        },
        {
          "internalType": "uint256",
          "name": "tokenId",
          "type": "uint256"
        }
      ],
      "name": "transferFrom",
      "outputs": [],
      "stateMutability": "nonpayable",
      "type": "function"
    },
    {
      "inputs": [
        {
          "internalType": "address",
          "name": "newOwner",
          "type": "address"
        }
      ],
      "name": "transferOwnership",
      "outputs": [],
      "stateMutability": "nonpayable",
      "type": "function"
    },
    {
      "inputs": [
        {
          "internalType": "uint256",
          "name": "nftID",
          "type": "uint256"
        },
        {
          "internalType": "uint256",
          "name": "price",
          "type": "uint256"
        }
      ],
      "name": "buyNFT",
      "outputs": [],
      "stateMutability": "payable",
      "type": "function",
      "payable": true
    },
    {
      "inputs": [
        {
          "internalType": "uint256",
          "name": "nftID",
          "type": "uint256"
        }
      ],
      "name": "sellNFT",
      "outputs": [],
      "stateMutability": "nonpayable",
      "type": "function"
    },
    {
      "inputs": [],
      "name": "mint",
      "outputs": [],
      "stateMutability": "nonpayable",
      "type": "function"
    }
  ],
  "bytecode": "0x608060405260006007553480156200001657600080fd5b506040518060400160405280600a81526020017f5365617a6c65204e4654000000000000000000000000000000000000000000008152506040518060400160405280600a81526020017f205365617a6c654e465400000000000000000000000000000000000000000000815250620000a3620000976200011060201b60201c565b6200011860201b60201c565b8160019081620000b4919062000456565b508060029081620000c6919062000456565b50505033600960006101000a81548173ffffffffffffffffffffffffffffffffffffffff021916908373ffffffffffffffffffffffffffffffffffffffff1602179055506200053d565b600033905090565b60008060009054906101000a900473ffffffffffffffffffffffffffffffffffffffff169050816000806101000a81548173ffffffffffffffffffffffffffffffffffffffff021916908373ffffffffffffffffffffffffffffffffffffffff1602179055508173ffffffffffffffffffffffffffffffffffffffff168173ffffffffffffffffffffffffffffffffffffffff167f8be0079c531659141344cd1fd0a4f28419497f9722a3daafe3b4186f6b6457e060405160405180910390a35050565b600081519050919050565b7f4e487b7100000000000000000000000000000000000000000000000000000000600052604160045260246000fd5b7f4e487b7100000000000000000000000000000000000000000000000000000000600052602260045260246000fd5b600060028204905060018216806200025e57607f821691505b60208210810362000274576200027362000216565b5b50919050565b60008190508160005260206000209050919050565b60006020601f8301049050919050565b600082821b905092915050565b600060088302620002de7fffffffffffffffffffffffffffffffffffffffffffffffffffffffffffffffff826200029f565b620002ea86836200029f565b95508019841693508086168417925050509392505050565b6000819050919050565b6000819050919050565b600062000337620003316200032b8462000302565b6200030c565b62000302565b9050919050565b6000819050919050565b620003538362000316565b6200036b62000362826200033e565b848454620002ac565b825550505050565b600090565b6200038262000373565b6200038f81848462000348565b505050565b5b81811015620003b757620003ab60008262000378565b60018101905062000395565b5050565b601f8211156200040657620003d0816200027a565b620003db846200028f565b81016020851015620003eb578190505b62000403620003fa856200028f565b83018262000394565b50505b505050565b600082821c905092915050565b60006200042b600019846008026200040b565b1980831691505092915050565b600062000446838362000418565b9150826002028217905092915050565b6200046182620001dc565b67ffffffffffffffff8111156200047d576200047c620001e7565b5b62000489825462000245565b62000496828285620003bb565b600060209050601f831160018114620004ce5760008415620004b9578287015190505b620004c5858262000438565b86555062000535565b601f198416620004de866200027a565b60005b828110156200050857848901518255600182019150602085019450602081019050620004e1565b8683101562000528578489015162000524601f89168262000418565b8355505b6001600288020188555050505b505050505050565b612b5e806200054d6000396000f3fe60806040526004361061012a5760003560e01c806370a08231116100ab578063b88d4fde1161006f578063b88d4fde146103bd578063c87b56dd146103e6578063e985e9c514610423578063ee9cdfb314610460578063f2fde38b14610489578063f437bc59146104b25761012a565b806370a08231146102ea578063715018a6146103275780638da5cb5b1461033e57806395d89b4114610369578063a22cb465146103945761012a565b80631d85bf03116100f25780631d85bf031461021457806323b872dd1461023057806327454b6d1461025957806342842e0e146102845780636352211e146102ad5761012a565b806301ffc9a71461012f57806306fdde031461016c578063081812fc14610197578063095ea7b3146101d45780631249c58b146101fd575b600080fd5b34801561013b57600080fd5b5061015660048036038101906101519190611afe565b6104dd565b6040516101639190611b46565b60405180910390f35b34801561017857600080fd5b506101816105bf565b60405161018e9190611bf1565b60405180910390f35b3480156101a357600080fd5b506101be60048036038101906101b99190611c49565b610651565b6040516101cb9190611cb7565b60405180910390f35b3480156101e057600080fd5b506101fb60048036038101906101f69190611cfe565b610697565b005b34801561020957600080fd5b506102126107ae565b005b61022e60048036038101906102299190611d3e565b6107bb565b005b34801561023c57600080fd5b5061025760048036038101906102529190611d7e565b610824565b005b34801561026557600080fd5b5061026e610884565b60405161027b9190611de0565b60405180910390f35b34801561029057600080fd5b506102ab60048036038101906102a69190611d7e565b61088a565b005b3480156102b957600080fd5b506102d460048036038101906102cf9190611c49565b6108aa565b6040516102e19190611cb7565b60405180910390f35b3480156102f657600080fd5b50610311600480360381019061030c9190611dfb565b61095b565b60405161031e9190611de0565b60405180910390f35b34801561033357600080fd5b5061033c610a12565b005b34801561034a57600080fd5b50610353610a26565b6040516103609190611cb7565b60405180910390f35b34801561037557600080fd5b5061037e610a4f565b60405161038b9190611bf1565b60405180910390f35b3480156103a057600080fd5b506103bb60048036038101906103b69190611e54565b610ae1565b005b3480156103c957600080fd5b506103e460048036038101906103df9190611fc9565b610af7565b005b3480156103f257600080fd5b5061040d60048036038101906104089190611c49565b610b59565b60405161041a9190611bf1565b60405180910390f35b34801561042f57600080fd5b5061044a6004803603810190610445919061204c565b610bc1565b6040516104579190611b46565b60405180910390f35b34801561046c57600080fd5b5061048760048036038101906104829190611c49565b610c55565b005b34801561049557600080fd5b506104b060048036038101906104ab9190611dfb565b610c85565b005b3480156104be57600080fd5b506104c7610d08565b6040516104d49190611cb7565b60405180910390f35b60007f80ac58cd000000000000000000000000000000000000000000000000000000007bffffffffffffffffffffffffffffffffffffffffffffffffffffffff1916827bffffffffffffffffffffffffffffffffffffffffffffffffffffffff191614806105a857507f5b5e139f000000000000000000000000000000000000000000000000000000007bffffffffffffffffffffffffffffffffffffffffffffffffffffffff1916827bffffffffffffffffffffffffffffffffffffffffffffffffffffffff1916145b806105b857506105b782610d2e565b5b9050919050565b6060600180546105ce906120bb565b80601f01602080910402602001604051908101604052809291908181526020018280546105fa906120bb565b80156106475780601f1061061c57610100808354040283529160200191610647565b820191906000526020600020905b81548152906001019060200180831161062a57829003601f168201915b5050505050905090565b600061065c82610d98565b6005600083815260200190815260200160002060009054906101000a900473ffffffffffffffffffffffffffffffffffffffff169050919050565b60006106a2826108aa565b90508073ffffffffffffffffffffffffffffffffffffffff168373ffffffffffffffffffffffffffffffffffffffff1603610712576040517f08c379a00000000000000000000000000000000000000000000000000000000081526004016107099061215e565b60405180910390fd5b8073ffffffffffffffffffffffffffffffffffffffff16610731610de3565b73ffffffffffffffffffffffffffffffffffffffff161480610760575061075f8161075a610de3565b610bc1565b5b61079f576040517f08c379a0000000000000000000000000000000000000000000000000000000008152600401610796906121f0565b60405180910390fd5b6107a98383610deb565b505050565b6107b9336001610ea4565b565b6000670de0b6b3a7640000826107d1919061223f565b9050803414610815576040517f08c379a000000000000000000000000000000000000000000000000000000000815260040161080c906122cd565b60405180910390fd5b61081f3384610ea4565b505050565b61083561082f610de3565b82610ec2565b610874576040517f08c379a000000000000000000000000000000000000000000000000000000000815260040161086b9061235f565b60405180910390fd5b61087f838383610f57565b505050565b60075481565b6108a583838360405180602001604052806000815250610af7565b505050565b6000806003600084815260200190815260200160002060009054906101000a900473ffffffffffffffffffffffffffffffffffffffff169050600073ffffffffffffffffffffffffffffffffffffffff168173ffffffffffffffffffffffffffffffffffffffff1603610952576040517f08c379a0000000000000000000000000000000000000000000000000000000008152600401610949906123cb565b60405180910390fd5b80915050919050565b60008073ffffffffffffffffffffffffffffffffffffffff168273ffffffffffffffffffffffffffffffffffffffff16036109cb576040517f08c379a00000000000000000000000000000000000000000000000000000000081526004016109c29061245d565b60405180910390fd5b600460008373ffffffffffffffffffffffffffffffffffffffff1673ffffffffffffffffffffffffffffffffffffffff168152602001908152602001600020549050919050565b610a1a6111bd565b610a24600061123b565b565b60008060009054906101000a900473ffffffffffffffffffffffffffffffffffffffff16905090565b606060028054610a5e906120bb565b80601f0160208091040260200160405190810160405280929190818152602001828054610a8a906120bb565b8015610ad75780601f10610aac57610100808354040283529160200191610ad7565b820191906000526020600020905b815481529060010190602001808311610aba57829003601f168201915b5050505050905090565b610af3610aec610de3565b83836112ff565b5050565b610b08610b02610de3565b83610ec2565b610b47576040517f08c379a0000000000000000000000000000000000000000000000000000000008152600401610b3e9061235f565b60405180910390fd5b610b538484848461146b565b50505050565b6060610b6482610d98565b6000610b6e6114c7565b90506000815111610b8e5760405180602001604052806000815250610bb9565b80610b98846114de565b604051602001610ba99291906124b9565b6040516020818303038152906040525b915050919050565b6000600660008473ffffffffffffffffffffffffffffffffffffffff1673ffffffffffffffffffffffffffffffffffffffff16815260200190815260200160002060008373ffffffffffffffffffffffffffffffffffffffff1673ffffffffffffffffffffffffffffffffffffffff16815260200190815260200160002060009054906101000a900460ff16905092915050565b610c8233600960009054906101000a900473ffffffffffffffffffffffffffffffffffffffff1683610824565b50565b610c8d6111bd565b600073ffffffffffffffffffffffffffffffffffffffff168173ffffffffffffffffffffffffffffffffffffffff1603610cfc576040517f08c379a0000000000000000000000000000000000000000000000000000000008152600401610cf39061254f565b60405180910390fd5b610d058161123b565b50565b600960009054906101000a900473ffffffffffffffffffffffffffffffffffffffff1681565b60007f01ffc9a7000000000000000000000000000000000000000000000000000000007bffffffffffffffffffffffffffffffffffffffffffffffffffffffff1916827bffffffffffffffffffffffffffffffffffffffffffffffffffffffff1916149050919050565b610da18161163e565b610de0576040517f08c379a0000000000000000000000000000000000000000000000000000000008152600401610dd7906123cb565b60405180910390fd5b50565b600033905090565b816005600083815260200190815260200160002060006101000a81548173ffffffffffffffffffffffffffffffffffffffff021916908373ffffffffffffffffffffffffffffffffffffffff160217905550808273ffffffffffffffffffffffffffffffffffffffff16610e5e836108aa565b73ffffffffffffffffffffffffffffffffffffffff167f8c5be1e5ebec7d5bd14f71427d1e84f3dd0314c0f7b2291e5b200ac8c7c3b92560405160405180910390a45050565b610ebe8282604051806020016040528060008152506116aa565b5050565b600080610ece836108aa565b90508073ffffffffffffffffffffffffffffffffffffffff168473ffffffffffffffffffffffffffffffffffffffff161480610f105750610f0f8185610bc1565b5b80610f4e57508373ffffffffffffffffffffffffffffffffffffffff16610f3684610651565b73ffffffffffffffffffffffffffffffffffffffff16145b91505092915050565b8273ffffffffffffffffffffffffffffffffffffffff16610f77826108aa565b73ffffffffffffffffffffffffffffffffffffffff1614610fcd576040517f08c379a0000000000000000000000000000000000000000000000000000000008152600401610fc4906125e1565b60405180910390fd5b600073ffffffffffffffffffffffffffffffffffffffff168273ffffffffffffffffffffffffffffffffffffffff160361103c576040517f08c379a000000000000000000000000000000000000000000000000000000000815260040161103390612673565b60405180910390fd5b611047838383611705565b611052600082610deb565b6001600460008573ffffffffffffffffffffffffffffffffffffffff1673ffffffffffffffffffffffffffffffffffffffff16815260200190815260200160002060008282546110a29190612693565b925050819055506001600460008473ffffffffffffffffffffffffffffffffffffffff1673ffffffffffffffffffffffffffffffffffffffff16815260200190815260200160002060008282546110f991906126c7565b92505081905550816003600083815260200190815260200160002060006101000a81548173ffffffffffffffffffffffffffffffffffffffff021916908373ffffffffffffffffffffffffffffffffffffffff160217905550808273ffffffffffffffffffffffffffffffffffffffff168473ffffffffffffffffffffffffffffffffffffffff167fddf252ad1be2c89b69c2b068fc378daa952ba7f163c4a11628f55a4df523b3ef60405160405180910390a46111b883838361170a565b505050565b6111c5610de3565b73ffffffffffffffffffffffffffffffffffffffff166111e3610a26565b73ffffffffffffffffffffffffffffffffffffffff1614611239576040517f08c379a000000000000000000000000000000000000000000000000000000000815260040161123090612747565b60405180910390fd5b565b60008060009054906101000a900473ffffffffffffffffffffffffffffffffffffffff169050816000806101000a81548173ffffffffffffffffffffffffffffffffffffffff021916908373ffffffffffffffffffffffffffffffffffffffff1602179055508173ffffffffffffffffffffffffffffffffffffffff168173ffffffffffffffffffffffffffffffffffffffff167f8be0079c531659141344cd1fd0a4f28419497f9722a3daafe3b4186f6b6457e060405160405180910390a35050565b8173ffffffffffffffffffffffffffffffffffffffff168373ffffffffffffffffffffffffffffffffffffffff160361136d576040517f08c379a0000000000000000000000000000000000000000000000000000000008152600401611364906127b3565b60405180910390fd5b80600660008573ffffffffffffffffffffffffffffffffffffffff1673ffffffffffffffffffffffffffffffffffffffff16815260200190815260200160002060008473ffffffffffffffffffffffffffffffffffffffff1673ffffffffffffffffffffffffffffffffffffffff16815260200190815260200160002060006101000a81548160ff0219169083151502179055508173ffffffffffffffffffffffffffffffffffffffff168373ffffffffffffffffffffffffffffffffffffffff167f17307eab39ab6107e8899845ad3d59bd9653f200f220920489ca2b5937696c318360405161145e9190611b46565b60405180910390a3505050565b611476848484610f57565b6114828484848461170f565b6114c1576040517f08c379a00000000000000000000000000000000000000000000000000000000081526004016114b890612845565b60405180910390fd5b50505050565b606060405180602001604052806000815250905090565b606060008203611525576040518060400160405280600181526020017f30000000000000000000000000000000000000000000000000000000000000008152509050611639565b600082905060005b6000821461155757808061154090612865565b915050600a8261155091906128dc565b915061152d565b60008167ffffffffffffffff81111561157357611572611e9e565b5b6040519080825280601f01601f1916602001820160405280156115a55781602001600182028036833780820191505090505b5090505b60008514611632576001826115be9190612693565b9150600a856115cd919061290d565b60306115d991906126c7565b60f81b8183815181106115ef576115ee61293e565b5b60200101907effffffffffffffffffffffffffffffffffffffffffffffffffffffffffffff1916908160001a905350600a8561162b91906128dc565b94506115a9565b8093505050505b919050565b60008073ffffffffffffffffffffffffffffffffffffffff166003600084815260200190815260200160002060009054906101000a900473ffffffffffffffffffffffffffffffffffffffff1673ffffffffffffffffffffffffffffffffffffffff1614159050919050565b6116b48383611896565b6116c1600084848461170f565b611700576040517f08c379a00000000000000000000000000000000000000000000000000000000081526004016116f790612845565b60405180910390fd5b505050565b505050565b505050565b60006117308473ffffffffffffffffffffffffffffffffffffffff16611a6f565b15611889578373ffffffffffffffffffffffffffffffffffffffff1663150b7a02611759610de3565b8786866040518563ffffffff1660e01b815260040161177b94939291906129c2565b6020604051808303816000875af19250505080156117b757506040513d601f19601f820116820180604052508101906117b49190612a23565b60015b611839573d80600081146117e7576040519150601f19603f3d011682016040523d82523d6000602084013e6117ec565b606091505b506000815103611831576040517f08c379a000000000000000000000000000000000000000000000000000000000815260040161182890612845565b60405180910390fd5b805181602001fd5b63150b7a0260e01b7bffffffffffffffffffffffffffffffffffffffffffffffffffffffff1916817bffffffffffffffffffffffffffffffffffffffffffffffffffffffff19161491505061188e565b600190505b949350505050565b600073ffffffffffffffffffffffffffffffffffffffff168273ffffffffffffffffffffffffffffffffffffffff1603611905576040517f08c379a00000000000000000000000000000000000000000000000000000000081526004016118fc90612a9c565b60405180910390fd5b61190e8161163e565b1561194e576040517f08c379a000000000000000000000000000000000000000000000000000000000815260040161194590612b08565b60405180910390fd5b61195a60008383611705565b6001600460008473ffffffffffffffffffffffffffffffffffffffff1673ffffffffffffffffffffffffffffffffffffffff16815260200190815260200160002060008282546119aa91906126c7565b92505081905550816003600083815260200190815260200160002060006101000a81548173ffffffffffffffffffffffffffffffffffffffff021916908373ffffffffffffffffffffffffffffffffffffffff160217905550808273ffffffffffffffffffffffffffffffffffffffff16600073ffffffffffffffffffffffffffffffffffffffff167fddf252ad1be2c89b69c2b068fc378daa952ba7f163c4a11628f55a4df523b3ef60405160405180910390a4611a6b6000838361170a565b5050565b6000808273ffffffffffffffffffffffffffffffffffffffff163b119050919050565b6000604051905090565b600080fd5b600080fd5b60007fffffffff0000000000000000000000000000000000000000000000000000000082169050919050565b611adb81611aa6565b8114611ae657600080fd5b50565b600081359050611af881611ad2565b92915050565b600060208284031215611b1457611b13611a9c565b5b6000611b2284828501611ae9565b91505092915050565b60008115159050919050565b611b4081611b2b565b82525050565b6000602082019050611b5b6000830184611b37565b92915050565b600081519050919050565b600082825260208201905092915050565b60005b83811015611b9b578082015181840152602081019050611b80565b60008484015250505050565b6000601f19601f8301169050919050565b6000611bc382611b61565b611bcd8185611b6c565b9350611bdd818560208601611b7d565b611be681611ba7565b840191505092915050565b60006020820190508181036000830152611c0b8184611bb8565b905092915050565b6000819050919050565b611c2681611c13565b8114611c3157600080fd5b50565b600081359050611c4381611c1d565b92915050565b600060208284031215611c5f57611c5e611a9c565b5b6000611c6d84828501611c34565b91505092915050565b600073ffffffffffffffffffffffffffffffffffffffff82169050919050565b6000611ca182611c76565b9050919050565b611cb181611c96565b82525050565b6000602082019050611ccc6000830184611ca8565b92915050565b611cdb81611c96565b8114611ce657600080fd5b50565b600081359050611cf881611cd2565b92915050565b60008060408385031215611d1557611d14611a9c565b5b6000611d2385828601611ce9565b9250506020611d3485828601611c34565b9150509250929050565b60008060408385031215611d5557611d54611a9c565b5b6000611d6385828601611c34565b9250506020611d7485828601611c34565b9150509250929050565b600080600060608486031215611d9757611d96611a9c565b5b6000611da586828701611ce9565b9350506020611db686828701611ce9565b9250506040611dc786828701611c34565b9150509250925092565b611dda81611c13565b82525050565b6000602082019050611df56000830184611dd1565b92915050565b600060208284031215611e1157611e10611a9c565b5b6000611e1f84828501611ce9565b91505092915050565b611e3181611b2b565b8114611e3c57600080fd5b50565b600081359050611e4e81611e28565b92915050565b60008060408385031215611e6b57611e6a611a9c565b5b6000611e7985828601611ce9565b9250506020611e8a85828601611e3f565b9150509250929050565b600080fd5b600080fd5b7f4e487b7100000000000000000000000000000000000000000000000000000000600052604160045260246000fd5b611ed682611ba7565b810181811067ffffffffffffffff82111715611ef557611ef4611e9e565b5b80604052505050565b6000611f08611a92565b9050611f148282611ecd565b919050565b600067ffffffffffffffff821115611f3457611f33611e9e565b5b611f3d82611ba7565b9050602081019050919050565b82818337600083830152505050565b6000611f6c611f6784611f19565b611efe565b905082815260208101848484011115611f8857611f87611e99565b5b611f93848285611f4a565b509392505050565b600082601f830112611fb057611faf611e94565b5b8135611fc0848260208601611f59565b91505092915050565b60008060008060808587031215611fe357611fe2611a9c565b5b6000611ff187828801611ce9565b945050602061200287828801611ce9565b935050604061201387828801611c34565b925050606085013567ffffffffffffffff81111561203457612033611aa1565b5b61204087828801611f9b565b91505092959194509250565b6000806040838503121561206357612062611a9c565b5b600061207185828601611ce9565b925050602061208285828601611ce9565b9150509250929050565b7f4e487b7100000000000000000000000000000000000000000000000000000000600052602260045260246000fd5b600060028204905060018216806120d357607f821691505b6020821081036120e6576120e561208c565b5b50919050565b7f4552433732313a20617070726f76616c20746f2063757272656e74206f776e6560008201527f7200000000000000000000000000000000000000000000000000000000000000602082015250565b6000612148602183611b6c565b9150612153826120ec565b604082019050919050565b600060208201905081810360008301526121778161213b565b9050919050565b7f4552433732313a20617070726f76652063616c6c6572206973206e6f7420746f60008201527f6b656e206f776e6572206e6f7220617070726f76656420666f7220616c6c0000602082015250565b60006121da603e83611b6c565b91506121e58261217e565b604082019050919050565b60006020820190508181036000830152612209816121cd565b9050919050565b7f4e487b7100000000000000000000000000000000000000000000000000000000600052601160045260246000fd5b600061224a82611c13565b915061225583611c13565b925082820261226381611c13565b9150828204841483151761227a57612279612210565b5b5092915050565b7f446f6e7420656e6f7567682076616c7565000000000000000000000000000000600082015250565b60006122b7601183611b6c565b91506122c282612281565b602082019050919050565b600060208201905081810360008301526122e6816122aa565b9050919050565b7f4552433732313a2063616c6c6572206973206e6f7420746f6b656e206f776e6560008201527f72206e6f7220617070726f766564000000000000000000000000000000000000602082015250565b6000612349602e83611b6c565b9150612354826122ed565b604082019050919050565b600060208201905081810360008301526123788161233c565b9050919050565b7f4552433732313a20696e76616c696420746f6b656e2049440000000000000000600082015250565b60006123b5601883611b6c565b91506123c08261237f565b602082019050919050565b600060208201905081810360008301526123e4816123a8565b9050919050565b7f4552433732313a2061646472657373207a65726f206973206e6f74206120766160008201527f6c6964206f776e65720000000000000000000000000000000000000000000000602082015250565b6000612447602983611b6c565b9150612452826123eb565b604082019050919050565b600060208201905081810360008301526124768161243a565b9050919050565b600081905092915050565b600061249382611b61565b61249d818561247d565b93506124ad818560208601611b7d565b80840191505092915050565b60006124c58285612488565b91506124d18284612488565b91508190509392505050565b7f4f776e61626c653a206e6577206f776e657220697320746865207a65726f206160008201527f6464726573730000000000000000000000000000000000000000000000000000602082015250565b6000612539602683611b6c565b9150612544826124dd565b604082019050919050565b600060208201905081810360008301526125688161252c565b9050919050565b7f4552433732313a207472616e736665722066726f6d20696e636f72726563742060008201527f6f776e6572000000000000000000000000000000000000000000000000000000602082015250565b60006125cb602583611b6c565b91506125d68261256f565b604082019050919050565b600060208201905081810360008301526125fa816125be565b9050919050565b7f4552433732313a207472616e7366657220746f20746865207a65726f2061646460008201527f7265737300000000000000000000000000000000000000000000000000000000602082015250565b600061265d602483611b6c565b915061266882612601565b604082019050919050565b6000602082019050818103600083015261268c81612650565b9050919050565b600061269e82611c13565b91506126a983611c13565b92508282039050818111156126c1576126c0612210565b5b92915050565b60006126d282611c13565b91506126dd83611c13565b92508282019050808211156126f5576126f4612210565b5b92915050565b7f4f776e61626c653a2063616c6c6572206973206e6f7420746865206f776e6572600082015250565b6000612731602083611b6c565b915061273c826126fb565b602082019050919050565b6000602082019050818103600083015261276081612724565b9050919050565b7f4552433732313a20617070726f766520746f2063616c6c657200000000000000600082015250565b600061279d601983611b6c565b91506127a882612767565b602082019050919050565b600060208201905081810360008301526127cc81612790565b9050919050565b7f4552433732313a207472616e7366657220746f206e6f6e20455243373231526560008201527f63656976657220696d706c656d656e7465720000000000000000000000000000602082015250565b600061282f603283611b6c565b915061283a826127d3565b604082019050919050565b6000602082019050818103600083015261285e81612822565b9050919050565b600061287082611c13565b91507fffffffffffffffffffffffffffffffffffffffffffffffffffffffffffffffff82036128a2576128a1612210565b5b600182019050919050565b7f4e487b7100000000000000000000000000000000000000000000000000000000600052601260045260246000fd5b60006128e782611c13565b91506128f283611c13565b925082612902576129016128ad565b5b828204905092915050565b600061291882611c13565b915061292383611c13565b925082612933576129326128ad565b5b828206905092915050565b7f4e487b7100000000000000000000000000000000000000000000000000000000600052603260045260246000fd5b600081519050919050565b600082825260208201905092915050565b60006129948261296d565b61299e8185612978565b93506129ae818560208601611b7d565b6129b781611ba7565b840191505092915050565b60006080820190506129d76000830187611ca8565b6129e46020830186611ca8565b6129f16040830185611dd1565b8181036060830152612a038184612989565b905095945050505050565b600081519050612a1d81611ad2565b92915050565b600060208284031215612a3957612a38611a9c565b5b6000612a4784828501612a0e565b91505092915050565b7f4552433732313a206d696e7420746f20746865207a65726f2061646472657373600082015250565b6000612a86602083611b6c565b9150612a9182612a50565b602082019050919050565b60006020820190508181036000830152612ab581612a79565b9050919050565b7f4552433732313a20746f6b656e20616c7265616479206d696e74656400000000600082015250565b6000612af2601c83611b6c565b9150612afd82612abc565b602082019050919050565b60006020820190508181036000830152612b2181612ae5565b905091905056fea26469706673582212207803677ab97aaa9a81be9265e67748179780b133d0f87fc5c333563a13c47fec64736f6c63430008110033",
  "immutableReferences": {},
  "source": "// SPDX-License-Identifier: MIT\n\npragma solidity ^0.8.0;\n\nimport \"../node_modules/@openzeppelin/contracts/access/Ownable.sol\";\nimport \"../node_modules/@openzeppelin/contracts/token/ERC721/ERC721.sol\";\n\ncontract SeazleNFT is Ownable,ERC721\n{\n    uint public myTotal =0;\n    uint listNFTMinted ;  \n    address public host;\n\n    constructor ()  ERC721(\"Seazle NFT\",\" SeazleNFT\")\n    {\n        host = msg.sender;\n    }\n\n    function buyNFT(uint nftID , uint price) public payable   //nftID get from buyer, price get from DB\n    {\n        uint _price =  price * 1 ether;\n        require(msg.value == _price, \"Dont enough value\");  \n        _safeMint(msg.sender, nftID);\n    }\n\n    function sellNFT(uint nftID) public    //nftID get from seller \n    {\n        transferFrom((msg.sender), host, nftID);\n    }   \n\n    function mint () public \n    { \n        _safeMint(msg.sender, 1);\n    }\n}",
  "sourcePath": "/Users/lenguyenquangminh/Documents/CS300/Blockchain/Seazle NFT/contracts/SeazleNFT.sol",
  "compiler": {
    "name": "solc",
    "version": "0.8.17+commit.8df45f5f.Emscripten.clang"
  },
  "schemaVersion": "3.4.10",
  "updatedAt": "2022-11-03T06:33:51.791Z",
  "networkType": "ethereum",
  "devdoc": {
    "kind": "dev",
    "methods": {
      "approve(address,uint256)": {
        "details": "See {IERC721-approve}."
      },
      "balanceOf(address)": {
        "details": "See {IERC721-balanceOf}."
      },
      "getApproved(uint256)": {
        "details": "See {IERC721-getApproved}."
      },
      "isApprovedForAll(address,address)": {
        "details": "See {IERC721-isApprovedForAll}."
      },
      "name()": {
        "details": "See {IERC721Metadata-name}."
      },
      "owner()": {
        "details": "Returns the address of the current owner."
      },
      "ownerOf(uint256)": {
        "details": "See {IERC721-ownerOf}."
      },
      "renounceOwnership()": {
        "details": "Leaves the contract without owner. It will not be possible to call `onlyOwner` functions anymore. Can only be called by the current owner. NOTE: Renouncing ownership will leave the contract without an owner, thereby removing any functionality that is only available to the owner."
      },
      "safeTransferFrom(address,address,uint256)": {
        "details": "See {IERC721-safeTransferFrom}."
      },
      "safeTransferFrom(address,address,uint256,bytes)": {
        "details": "See {IERC721-safeTransferFrom}."
      },
      "setApprovalForAll(address,bool)": {
        "details": "See {IERC721-setApprovalForAll}."
      },
      "supportsInterface(bytes4)": {
        "details": "See {IERC165-supportsInterface}."
      },
      "symbol()": {
        "details": "See {IERC721Metadata-symbol}."
      },
      "tokenURI(uint256)": {
        "details": "See {IERC721Metadata-tokenURI}."
      },
      "transferFrom(address,address,uint256)": {
        "details": "See {IERC721-transferFrom}."
      },
      "transferOwnership(address)": {
        "details": "Transfers ownership of the contract to a new account (`newOwner`). Can only be called by the current owner."
      }
    },
    "version": 1
  },
  "userdoc": {
    "kind": "user",
    "methods": {},
    "version": 1
  }
}